{
  "_format": "hh-sol-artifact-1",
  "contractName": "MyToken",
  "sourceName": "contracts/ERC1155ASSIGNMENT.sol",
  "abi": [
    {
      "inputs": [
        {
          "internalType": "address",
          "name": "_paymenttoken",
          "type": "address"
        },
        {
          "internalType": "address",
          "name": "_escrowcontract",
          "type": "address"
        }
      ],
      "stateMutability": "nonpayable",
      "type": "constructor"
    },
    {
      "anonymous": false,
      "inputs": [
        {
          "indexed": true,
          "internalType": "address",
          "name": "account",
          "type": "address"
        },
        {
          "indexed": true,
          "internalType": "address",
          "name": "operator",
          "type": "address"
        },
        {
          "indexed": false,
          "internalType": "bool",
          "name": "approved",
          "type": "bool"
        }
      ],
      "name": "ApprovalForAll",
      "type": "event"
    },
    {
      "anonymous": false,
      "inputs": [
        {
          "indexed": true,
          "internalType": "address",
          "name": "previousOwner",
          "type": "address"
        },
        {
          "indexed": true,
          "internalType": "address",
          "name": "newOwner",
          "type": "address"
        }
      ],
      "name": "OwnershipTransferred",
      "type": "event"
    },
    {
      "anonymous": false,
      "inputs": [
        {
          "indexed": true,
          "internalType": "address",
          "name": "operator",
          "type": "address"
        },
        {
          "indexed": true,
          "internalType": "address",
          "name": "from",
          "type": "address"
        },
        {
          "indexed": true,
          "internalType": "address",
          "name": "to",
          "type": "address"
        },
        {
          "indexed": false,
          "internalType": "uint256[]",
          "name": "ids",
          "type": "uint256[]"
        },
        {
          "indexed": false,
          "internalType": "uint256[]",
          "name": "values",
          "type": "uint256[]"
        }
      ],
      "name": "TransferBatch",
      "type": "event"
    },
    {
      "anonymous": false,
      "inputs": [
        {
          "indexed": true,
          "internalType": "address",
          "name": "operator",
          "type": "address"
        },
        {
          "indexed": true,
          "internalType": "address",
          "name": "from",
          "type": "address"
        },
        {
          "indexed": true,
          "internalType": "address",
          "name": "to",
          "type": "address"
        },
        {
          "indexed": false,
          "internalType": "uint256",
          "name": "id",
          "type": "uint256"
        },
        {
          "indexed": false,
          "internalType": "uint256",
          "name": "value",
          "type": "uint256"
        }
      ],
      "name": "TransferSingle",
      "type": "event"
    },
    {
      "anonymous": false,
      "inputs": [
        {
          "indexed": false,
          "internalType": "string",
          "name": "value",
          "type": "string"
        },
        {
          "indexed": true,
          "internalType": "uint256",
          "name": "id",
          "type": "uint256"
        }
      ],
      "name": "URI",
      "type": "event"
    },
    {
      "inputs": [
        {
          "internalType": "uint256",
          "name": "id",
          "type": "uint256"
        }
      ],
      "name": "GetTokenUri",
      "outputs": [
        {
          "internalType": "string",
          "name": "",
          "type": "string"
        }
      ],
      "stateMutability": "view",
      "type": "function"
    },
    {
      "inputs": [
        {
          "internalType": "address",
          "name": "account",
          "type": "address"
        },
        {
          "internalType": "uint256",
          "name": "id",
          "type": "uint256"
        }
      ],
      "name": "balanceOf",
      "outputs": [
        {
          "internalType": "uint256",
          "name": "",
          "type": "uint256"
        }
      ],
      "stateMutability": "view",
      "type": "function"
    },
    {
      "inputs": [
        {
          "internalType": "address[]",
          "name": "accounts",
          "type": "address[]"
        },
        {
          "internalType": "uint256[]",
          "name": "ids",
          "type": "uint256[]"
        }
      ],
      "name": "balanceOfBatch",
      "outputs": [
        {
          "internalType": "uint256[]",
          "name": "",
          "type": "uint256[]"
        }
      ],
      "stateMutability": "view",
      "type": "function"
    },
    {
      "inputs": [
        {
          "internalType": "uint256",
          "name": "_tokeId",
          "type": "uint256"
        }
      ],
      "name": "disablepaymenttoken",
      "outputs": [],
      "stateMutability": "nonpayable",
      "type": "function"
    },
    {
      "inputs": [
        {
          "internalType": "uint256",
          "name": "_tokeId",
          "type": "uint256"
        }
      ],
      "name": "enablepaymenttoken",
      "outputs": [],
      "stateMutability": "nonpayable",
      "type": "function"
    },
    {
      "inputs": [],
      "name": "escrowaddress",
      "outputs": [
        {
          "internalType": "address",
          "name": "",
          "type": "address"
        }
      ],
      "stateMutability": "view",
      "type": "function"
    },
    {
      "inputs": [
        {
          "internalType": "uint256",
          "name": "tokenid",
          "type": "uint256"
        }
      ],
      "name": "gettokenuri",
      "outputs": [
        {
          "internalType": "string",
          "name": "",
          "type": "string"
        }
      ],
      "stateMutability": "view",
      "type": "function"
    },
    {
      "inputs": [
        {
          "internalType": "address",
          "name": "account",
          "type": "address"
        },
        {
          "internalType": "address",
          "name": "operator",
          "type": "address"
        }
      ],
      "name": "isApprovedForAll",
      "outputs": [
        {
          "internalType": "bool",
          "name": "",
          "type": "bool"
        }
      ],
      "stateMutability": "view",
      "type": "function"
    },
    {
      "inputs": [
        {
          "internalType": "uint256",
          "name": "tokenid",
          "type": "uint256"
        },
        {
          "internalType": "uint256",
          "name": "numberofcopies",
          "type": "uint256"
        },
        {
          "internalType": "string",
          "name": "tokenurii",
          "type": "string"
        },
        {
          "internalType": "enum SaleType",
          "name": "saletype",
          "type": "uint8"
        },
        {
          "internalType": "uint256",
          "name": "pricepernft",
          "type": "uint256"
        }
      ],
      "name": "minttoken",
      "outputs": [],
      "stateMutability": "nonpayable",
      "type": "function"
    },
    {
      "inputs": [],
      "name": "owner",
      "outputs": [
        {
          "internalType": "address",
          "name": "",
          "type": "address"
        }
      ],
      "stateMutability": "view",
      "type": "function"
    },
    {
      "inputs": [
        {
          "internalType": "uint256",
          "name": "tokenid",
          "type": "uint256"
        }
      ],
      "name": "paymentmethod",
      "outputs": [
        {
          "internalType": "bool",
          "name": "",
          "type": "bool"
        }
      ],
      "stateMutability": "view",
      "type": "function"
    },
    {
      "inputs": [],
      "name": "paymenttoken",
      "outputs": [
        {
          "internalType": "contract IERC20",
          "name": "",
          "type": "address"
        }
      ],
      "stateMutability": "view",
      "type": "function"
    },
    {
      "inputs": [
        {
          "internalType": "uint256",
          "name": "",
          "type": "uint256"
        }
      ],
      "name": "paymenttokenenabled",
      "outputs": [
        {
          "internalType": "bool",
          "name": "",
          "type": "bool"
        }
      ],
      "stateMutability": "view",
      "type": "function"
    },
    {
      "inputs": [],
      "name": "renounceOwnership",
      "outputs": [],
      "stateMutability": "nonpayable",
      "type": "function"
    },
    {
      "inputs": [
        {
          "internalType": "address",
          "name": "from",
          "type": "address"
        },
        {
          "internalType": "address",
          "name": "to",
          "type": "address"
        },
        {
          "internalType": "uint256[]",
          "name": "ids",
          "type": "uint256[]"
        },
        {
          "internalType": "uint256[]",
          "name": "amounts",
          "type": "uint256[]"
        },
        {
          "internalType": "bytes",
          "name": "data",
          "type": "bytes"
        }
      ],
      "name": "safeBatchTransferFrom",
      "outputs": [],
      "stateMutability": "nonpayable",
      "type": "function"
    },
    {
      "inputs": [
        {
          "internalType": "address",
          "name": "from",
          "type": "address"
        },
        {
          "internalType": "address",
          "name": "to",
          "type": "address"
        },
        {
          "internalType": "uint256",
          "name": "id",
          "type": "uint256"
        },
        {
          "internalType": "uint256",
          "name": "amount",
          "type": "uint256"
        },
        {
          "internalType": "bytes",
          "name": "data",
          "type": "bytes"
        }
      ],
      "name": "safeTransferFrom",
      "outputs": [],
      "stateMutability": "nonpayable",
      "type": "function"
    },
    {
      "inputs": [
        {
          "internalType": "address",
          "name": "operator",
          "type": "address"
        },
        {
          "internalType": "bool",
          "name": "approved",
          "type": "bool"
        }
      ],
      "name": "setApprovalForAll",
      "outputs": [],
      "stateMutability": "nonpayable",
      "type": "function"
    },
    {
      "inputs": [
        {
          "internalType": "uint256",
          "name": "id",
          "type": "uint256"
        },
        {
          "internalType": "string",
          "name": "newuri",
          "type": "string"
        }
      ],
      "name": "setURI",
      "outputs": [],
      "stateMutability": "nonpayable",
      "type": "function"
    },
    {
      "inputs": [
        {
          "internalType": "bytes4",
          "name": "interfaceId",
          "type": "bytes4"
        }
      ],
      "name": "supportsInterface",
      "outputs": [
        {
          "internalType": "bool",
          "name": "",
          "type": "bool"
        }
      ],
      "stateMutability": "view",
      "type": "function"
    },
    {
      "inputs": [
        {
          "internalType": "uint256",
          "name": "",
          "type": "uint256"
        }
      ],
      "name": "tokens",
      "outputs": [
        {
          "internalType": "uint256",
          "name": "maxcopies",
          "type": "uint256"
        },
        {
          "internalType": "string",
          "name": "uri",
          "type": "string"
        },
        {
          "internalType": "bool",
          "name": "paymenttokenenabled",
          "type": "bool"
        }
      ],
      "stateMutability": "view",
      "type": "function"
    },
    {
      "inputs": [
        {
          "internalType": "address",
          "name": "newOwner",
          "type": "address"
        }
      ],
      "name": "transferOwnership",
      "outputs": [],
      "stateMutability": "nonpayable",
      "type": "function"
    },
    {
      "inputs": [
        {
          "internalType": "uint256",
          "name": "",
          "type": "uint256"
        }
      ],
      "name": "uri",
      "outputs": [
        {
          "internalType": "string",
          "name": "",
          "type": "string"
        }
      ],
      "stateMutability": "view",
      "type": "function"
    }
  ],
  "bytecode": "0x60806040523480156200001157600080fd5b5060405162003c7c38038062003c7c833981810160405281019062000037919062000307565b6040518060200160405280600081525062000058816200010360201b60201c565b50620000796200006d6200011f60201b60201c565b6200012760201b60201c565b81600760006101000a81548173ffffffffffffffffffffffffffffffffffffffff021916908373ffffffffffffffffffffffffffffffffffffffff16021790555080600460006101000a81548173ffffffffffffffffffffffffffffffffffffffff021916908373ffffffffffffffffffffffffffffffffffffffff1602179055505050620003b3565b80600290805190602001906200011b929190620001ed565b5050565b600033905090565b6000600360009054906101000a900473ffffffffffffffffffffffffffffffffffffffff16905081600360006101000a81548173ffffffffffffffffffffffffffffffffffffffff021916908373ffffffffffffffffffffffffffffffffffffffff1602179055508173ffffffffffffffffffffffffffffffffffffffff168173ffffffffffffffffffffffffffffffffffffffff167f8be0079c531659141344cd1fd0a4f28419497f9722a3daafe3b4186f6b6457e060405160405180910390a35050565b828054620001fb906200037d565b90600052602060002090601f0160209004810192826200021f57600085556200026b565b82601f106200023a57805160ff19168380011785556200026b565b828001600101855582156200026b579182015b828111156200026a5782518255916020019190600101906200024d565b5b5090506200027a91906200027e565b5090565b5b80821115620002995760008160009055506001016200027f565b5090565b600080fd5b600073ffffffffffffffffffffffffffffffffffffffff82169050919050565b6000620002cf82620002a2565b9050919050565b620002e181620002c2565b8114620002ed57600080fd5b50565b6000815190506200030181620002d6565b92915050565b600080604083850312156200032157620003206200029d565b5b60006200033185828601620002f0565b92505060206200034485828601620002f0565b9150509250929050565b7f4e487b7100000000000000000000000000000000000000000000000000000000600052602260045260246000fd5b600060028204905060018216806200039657607f821691505b60208210811415620003ad57620003ac6200034e565b5b50919050565b6138b980620003c36000396000f3fe608060405234801561001057600080fd5b50600436106101415760003560e01c80637d6b6f9e116100b8578063ce01c4ed1161007c578063ce01c4ed14610386578063d9e8deef146103b6578063e5ec00fa146103d4578063e985e9c514610404578063f242432a14610434578063f2fde38b1461045057610141565b80637d6b6f9e146102e2578063862440e2146103005780638da5cb5b1461031c5780639347cf271461033a578063a22cb4651461036a57610141565b8063331d0a591161010a578063331d0a591461020e578063455f65811461022a5780634e1273f41461025a5780634f64b2be1461028a5780636af6a624146102bc578063715018a6146102d857610141565b8062fdd58e1461014657806301ffc9a7146101765780630273a245146101a65780630e89341c146101c25780632eb2c2d6146101f2575b600080fd5b610160600480360381019061015b919061203a565b61046c565b60405161016d9190612089565b60405180910390f35b610190600480360381019061018b91906120fc565b610535565b60405161019d9190612144565b60405180910390f35b6101c060048036038101906101bb91906122ca565b610617565b005b6101dc60048036038101906101d79190612361565b6108d9565b6040516101e99190612416565b60405180910390f35b61020c600480360381019061020791906125a1565b61096d565b005b61022860048036038101906102239190612361565b610a0e565b005b610244600480360381019061023f9190612361565b610a45565b6040516102519190612144565b60405180910390f35b610274600480360381019061026f9190612733565b610a6f565b6040516102819190612869565b60405180910390f35b6102a4600480360381019061029f9190612361565b610b88565b6040516102b39392919061288b565b60405180910390f35b6102d660048036038101906102d19190612361565b610c47565b005b6102e0610c7e565b005b6102ea610c92565b6040516102f791906128d8565b60405180910390f35b61031a600480360381019061031591906128f3565b610cb8565b005b610324610cec565b60405161033191906128d8565b60405180910390f35b610354600480360381019061034f9190612361565b610d16565b6040516103619190612416565b60405180910390f35b610384600480360381019061037f919061297b565b610d28565b005b6103a0600480360381019061039b9190612361565b610d3e565b6040516103ad9190612144565b60405180910390f35b6103be610d5e565b6040516103cb9190612a1a565b60405180910390f35b6103ee60048036038101906103e99190612361565b610d84565b6040516103fb9190612416565b60405180910390f35b61041e60048036038101906104199190612a35565b610e29565b60405161042b9190612144565b60405180910390f35b61044e60048036038101906104499190612a75565b610ebd565b005b61046a60048036038101906104659190612b0c565b610f5e565b005b60008073ffffffffffffffffffffffffffffffffffffffff168373ffffffffffffffffffffffffffffffffffffffff1614156104dd576040517f08c379a00000000000000000000000000000000000000000000000000000000081526004016104d490612bab565b60405180910390fd5b60008083815260200190815260200160002060008473ffffffffffffffffffffffffffffffffffffffff1673ffffffffffffffffffffffffffffffffffffffff16815260200190815260200160002054905092915050565b60007fd9b67a26000000000000000000000000000000000000000000000000000000007bffffffffffffffffffffffffffffffffffffffffffffffffffffffff1916827bffffffffffffffffffffffffffffffffffffffffffffffffffffffff1916148061060057507f0e89341c000000000000000000000000000000000000000000000000000000007bffffffffffffffffffffffffffffffffffffffffffffffffffffffff1916827bffffffffffffffffffffffffffffffffffffffffffffffffffffffff1916145b80610610575061060f82610fe2565b5b9050919050565b6000841161065a576040517f08c379a000000000000000000000000000000000000000000000000000000000815260040161065190612c17565b60405180910390fd5b600083511161069e576040517f08c379a000000000000000000000000000000000000000000000000000000000815260040161069590612c83565b60405180910390fd5b600081116106e1576040517f08c379a00000000000000000000000000000000000000000000000000000000081526004016106d890612cef565b60405180910390fd5b600060018111156106f5576106f4612d0f565b5b82600181111561070857610707612d0f565b5b1480610737575060018081111561072257610721612d0f565b5b82600181111561073557610734612d0f565b5b145b610776576040517f08c379a000000000000000000000000000000000000000000000000000000000815260040161076d90612db0565b60405180910390fd5b6107a3600460009054906101000a900473ffffffffffffffffffffffffffffffffffffffff166001610d28565b604051806060016040528085815260200184815260200160011515815250600560008781526020019081526020016000206000820151816000015560208201518160010190805190602001906107fa929190611eef565b5060408201518160020160006101000a81548160ff0219169083151502179055509050506108393386866040518060200160405280600081525061104c565b600460009054906101000a900473ffffffffffffffffffffffffffffffffffffffff1673ffffffffffffffffffffffffffffffffffffffff166399bca79c308733888688426040518863ffffffff1660e01b81526004016108a09796959493929190612e18565b600060405180830381600087803b1580156108ba57600080fd5b505af11580156108ce573d6000803e3d6000fd5b505050505050505050565b6060600280546108e890612eb6565b80601f016020809104026020016040519081016040528092919081815260200182805461091490612eb6565b80156109615780601f1061093657610100808354040283529160200191610961565b820191906000526020600020905b81548152906001019060200180831161094457829003601f168201915b50505050509050919050565b6109756111fd565b73ffffffffffffffffffffffffffffffffffffffff168573ffffffffffffffffffffffffffffffffffffffff1614806109bb57506109ba856109b56111fd565b610e29565b5b6109fa576040517f08c379a00000000000000000000000000000000000000000000000000000000081526004016109f190612f5a565b60405180910390fd5b610a078585858585611205565b5050505050565b610a16611527565b60016008600083815260200190815260200160002060006101000a81548160ff02191690831515021790555050565b60006008600083815260200190815260200160002060009054906101000a900460ff169050919050565b60608151835114610ab5576040517f08c379a0000000000000000000000000000000000000000000000000000000008152600401610aac90612fec565b60405180910390fd5b6000835167ffffffffffffffff811115610ad257610ad161217a565b5b604051908082528060200260200182016040528015610b005781602001602082028036833780820191505090505b50905060005b8451811015610b7d57610b4d858281518110610b2557610b2461300c565b5b6020026020010151858381518110610b4057610b3f61300c565b5b602002602001015161046c565b828281518110610b6057610b5f61300c565b5b60200260200101818152505080610b769061306a565b9050610b06565b508091505092915050565b6005602052806000526040600020600091509050806000015490806001018054610bb190612eb6565b80601f0160208091040260200160405190810160405280929190818152602001828054610bdd90612eb6565b8015610c2a5780601f10610bff57610100808354040283529160200191610c2a565b820191906000526020600020905b815481529060010190602001808311610c0d57829003601f168201915b5050505050908060020160009054906101000a900460ff16905083565b610c4f611527565b60006008600083815260200190815260200160002060006101000a81548160ff02191690831515021790555050565b610c86611527565b610c9060006115a5565b565b600460009054906101000a900473ffffffffffffffffffffffffffffffffffffffff1681565b610cc0611527565b80600660008481526020019081526020016000209080519060200190610ce7929190611eef565b505050565b6000600360009054906101000a900473ffffffffffffffffffffffffffffffffffffffff16905090565b6060610d21826108d9565b9050919050565b610d3a610d336111fd565b838361166b565b5050565b60086020528060005260406000206000915054906101000a900460ff1681565b600760009054906101000a900473ffffffffffffffffffffffffffffffffffffffff1681565b6060600660008381526020019081526020016000208054610da490612eb6565b80601f0160208091040260200160405190810160405280929190818152602001828054610dd090612eb6565b8015610e1d5780601f10610df257610100808354040283529160200191610e1d565b820191906000526020600020905b815481529060010190602001808311610e0057829003601f168201915b50505050509050919050565b6000600160008473ffffffffffffffffffffffffffffffffffffffff1673ffffffffffffffffffffffffffffffffffffffff16815260200190815260200160002060008373ffffffffffffffffffffffffffffffffffffffff1673ffffffffffffffffffffffffffffffffffffffff16815260200190815260200160002060009054906101000a900460ff16905092915050565b610ec56111fd565b73ffffffffffffffffffffffffffffffffffffffff168573ffffffffffffffffffffffffffffffffffffffff161480610f0b5750610f0a85610f056111fd565b610e29565b5b610f4a576040517f08c379a0000000000000000000000000000000000000000000000000000000008152600401610f4190612f5a565b60405180910390fd5b610f5785858585856117d8565b5050505050565b610f66611527565b600073ffffffffffffffffffffffffffffffffffffffff168173ffffffffffffffffffffffffffffffffffffffff161415610fd6576040517f08c379a0000000000000000000000000000000000000000000000000000000008152600401610fcd90613125565b60405180910390fd5b610fdf816115a5565b50565b60007f01ffc9a7000000000000000000000000000000000000000000000000000000007bffffffffffffffffffffffffffffffffffffffffffffffffffffffff1916827bffffffffffffffffffffffffffffffffffffffffffffffffffffffff1916149050919050565b600073ffffffffffffffffffffffffffffffffffffffff168473ffffffffffffffffffffffffffffffffffffffff1614156110bc576040517f08c379a00000000000000000000000000000000000000000000000000000000081526004016110b3906131b7565b60405180910390fd5b60006110c66111fd565b905060006110d385611a74565b905060006110e085611a74565b90506110f183600089858589611aee565b8460008088815260200190815260200160002060008973ffffffffffffffffffffffffffffffffffffffff1673ffffffffffffffffffffffffffffffffffffffff168152602001908152602001600020600082825461115091906131d7565b925050819055508673ffffffffffffffffffffffffffffffffffffffff16600073ffffffffffffffffffffffffffffffffffffffff168473ffffffffffffffffffffffffffffffffffffffff167fc3d58168c5ae7397731d063d5bbf3d657854427343f4c083240f7aacaa2d0f6289896040516111ce92919061322d565b60405180910390a46111e583600089858589611af6565b6111f483600089898989611afe565b50505050505050565b600033905090565b8151835114611249576040517f08c379a0000000000000000000000000000000000000000000000000000000008152600401611240906132c8565b60405180910390fd5b600073ffffffffffffffffffffffffffffffffffffffff168473ffffffffffffffffffffffffffffffffffffffff1614156112b9576040517f08c379a00000000000000000000000000000000000000000000000000000000081526004016112b09061335a565b60405180910390fd5b60006112c36111fd565b90506112d3818787878787611aee565b60005b84518110156114845760008582815181106112f4576112f361300c565b5b6020026020010151905060008583815181106113135761131261300c565b5b60200260200101519050600080600084815260200190815260200160002060008b73ffffffffffffffffffffffffffffffffffffffff1673ffffffffffffffffffffffffffffffffffffffff168152602001908152602001600020549050818110156113b4576040517f08c379a00000000000000000000000000000000000000000000000000000000081526004016113ab906133ec565b60405180910390fd5b81810360008085815260200190815260200160002060008c73ffffffffffffffffffffffffffffffffffffffff1673ffffffffffffffffffffffffffffffffffffffff168152602001908152602001600020819055508160008085815260200190815260200160002060008b73ffffffffffffffffffffffffffffffffffffffff1673ffffffffffffffffffffffffffffffffffffffff168152602001908152602001600020600082825461146991906131d7565b925050819055505050508061147d9061306a565b90506112d6565b508473ffffffffffffffffffffffffffffffffffffffff168673ffffffffffffffffffffffffffffffffffffffff168273ffffffffffffffffffffffffffffffffffffffff167f4a39dc06d4c0dbc64b70af90fd698a233a518aa5d07e595d983b8c0526c8f7fb87876040516114fb92919061340c565b60405180910390a4611511818787878787611af6565b61151f818787878787611ce5565b505050505050565b61152f6111fd565b73ffffffffffffffffffffffffffffffffffffffff1661154d610cec565b73ffffffffffffffffffffffffffffffffffffffff16146115a3576040517f08c379a000000000000000000000000000000000000000000000000000000000815260040161159a9061348f565b60405180910390fd5b565b6000600360009054906101000a900473ffffffffffffffffffffffffffffffffffffffff16905081600360006101000a81548173ffffffffffffffffffffffffffffffffffffffff021916908373ffffffffffffffffffffffffffffffffffffffff1602179055508173ffffffffffffffffffffffffffffffffffffffff168173ffffffffffffffffffffffffffffffffffffffff167f8be0079c531659141344cd1fd0a4f28419497f9722a3daafe3b4186f6b6457e060405160405180910390a35050565b8173ffffffffffffffffffffffffffffffffffffffff168373ffffffffffffffffffffffffffffffffffffffff1614156116da576040517f08c379a00000000000000000000000000000000000000000000000000000000081526004016116d190613521565b60405180910390fd5b80600160008573ffffffffffffffffffffffffffffffffffffffff1673ffffffffffffffffffffffffffffffffffffffff16815260200190815260200160002060008473ffffffffffffffffffffffffffffffffffffffff1673ffffffffffffffffffffffffffffffffffffffff16815260200190815260200160002060006101000a81548160ff0219169083151502179055508173ffffffffffffffffffffffffffffffffffffffff168373ffffffffffffffffffffffffffffffffffffffff167f17307eab39ab6107e8899845ad3d59bd9653f200f220920489ca2b5937696c31836040516117cb9190612144565b60405180910390a3505050565b600073ffffffffffffffffffffffffffffffffffffffff168473ffffffffffffffffffffffffffffffffffffffff161415611848576040517f08c379a000000000000000000000000000000000000000000000000000000000815260040161183f9061335a565b60405180910390fd5b60006118526111fd565b9050600061185f85611a74565b9050600061186c85611a74565b905061187c838989858589611aee565b600080600088815260200190815260200160002060008a73ffffffffffffffffffffffffffffffffffffffff1673ffffffffffffffffffffffffffffffffffffffff16815260200190815260200160002054905085811015611913576040517f08c379a000000000000000000000000000000000000000000000000000000000815260040161190a906133ec565b60405180910390fd5b85810360008089815260200190815260200160002060008b73ffffffffffffffffffffffffffffffffffffffff1673ffffffffffffffffffffffffffffffffffffffff168152602001908152602001600020819055508560008089815260200190815260200160002060008a73ffffffffffffffffffffffffffffffffffffffff1673ffffffffffffffffffffffffffffffffffffffff16815260200190815260200160002060008282546119c891906131d7565b925050819055508773ffffffffffffffffffffffffffffffffffffffff168973ffffffffffffffffffffffffffffffffffffffff168573ffffffffffffffffffffffffffffffffffffffff167fc3d58168c5ae7397731d063d5bbf3d657854427343f4c083240f7aacaa2d0f628a8a604051611a4592919061322d565b60405180910390a4611a5b848a8a86868a611af6565b611a69848a8a8a8a8a611afe565b505050505050505050565b60606000600167ffffffffffffffff811115611a9357611a9261217a565b5b604051908082528060200260200182016040528015611ac15781602001602082028036833780820191505090505b5090508281600081518110611ad957611ad861300c565b5b60200260200101818152505080915050919050565b505050505050565b505050505050565b611b1d8473ffffffffffffffffffffffffffffffffffffffff16611ecc565b15611cdd578373ffffffffffffffffffffffffffffffffffffffff1663f23a6e6187878686866040518663ffffffff1660e01b8152600401611b63959493929190613596565b602060405180830381600087803b158015611b7d57600080fd5b505af1925050508015611bae57506040513d601f19601f82011682018060405250810190611bab9190613605565b60015b611c5457611bba61363f565b806308c379a01415611c175750611bcf613661565b80611bda5750611c19565b806040517f08c379a0000000000000000000000000000000000000000000000000000000008152600401611c0e9190612416565b60405180910390fd5b505b6040517f08c379a0000000000000000000000000000000000000000000000000000000008152600401611c4b90613769565b60405180910390fd5b63f23a6e6160e01b7bffffffffffffffffffffffffffffffffffffffffffffffffffffffff1916817bffffffffffffffffffffffffffffffffffffffffffffffffffffffff191614611cdb576040517f08c379a0000000000000000000000000000000000000000000000000000000008152600401611cd2906137fb565b60405180910390fd5b505b505050505050565b611d048473ffffffffffffffffffffffffffffffffffffffff16611ecc565b15611ec4578373ffffffffffffffffffffffffffffffffffffffff1663bc197c8187878686866040518663ffffffff1660e01b8152600401611d4a95949392919061381b565b602060405180830381600087803b158015611d6457600080fd5b505af1925050508015611d9557506040513d601f19601f82011682018060405250810190611d929190613605565b60015b611e3b57611da161363f565b806308c379a01415611dfe5750611db6613661565b80611dc15750611e00565b806040517f08c379a0000000000000000000000000000000000000000000000000000000008152600401611df59190612416565b60405180910390fd5b505b6040517f08c379a0000000000000000000000000000000000000000000000000000000008152600401611e3290613769565b60405180910390fd5b63bc197c8160e01b7bffffffffffffffffffffffffffffffffffffffffffffffffffffffff1916817bffffffffffffffffffffffffffffffffffffffffffffffffffffffff191614611ec2576040517f08c379a0000000000000000000000000000000000000000000000000000000008152600401611eb9906137fb565b60405180910390fd5b505b505050505050565b6000808273ffffffffffffffffffffffffffffffffffffffff163b119050919050565b828054611efb90612eb6565b90600052602060002090601f016020900481019282611f1d5760008555611f64565b82601f10611f3657805160ff1916838001178555611f64565b82800160010185558215611f64579182015b82811115611f63578251825591602001919060010190611f48565b5b509050611f719190611f75565b5090565b5b80821115611f8e576000816000905550600101611f76565b5090565b6000604051905090565b600080fd5b600080fd5b600073ffffffffffffffffffffffffffffffffffffffff82169050919050565b6000611fd182611fa6565b9050919050565b611fe181611fc6565b8114611fec57600080fd5b50565b600081359050611ffe81611fd8565b92915050565b6000819050919050565b61201781612004565b811461202257600080fd5b50565b6000813590506120348161200e565b92915050565b6000806040838503121561205157612050611f9c565b5b600061205f85828601611fef565b925050602061207085828601612025565b9150509250929050565b61208381612004565b82525050565b600060208201905061209e600083018461207a565b92915050565b60007fffffffff0000000000000000000000000000000000000000000000000000000082169050919050565b6120d9816120a4565b81146120e457600080fd5b50565b6000813590506120f6816120d0565b92915050565b60006020828403121561211257612111611f9c565b5b6000612120848285016120e7565b91505092915050565b60008115159050919050565b61213e81612129565b82525050565b60006020820190506121596000830184612135565b92915050565b600080fd5b600080fd5b6000601f19601f8301169050919050565b7f4e487b7100000000000000000000000000000000000000000000000000000000600052604160045260246000fd5b6121b282612169565b810181811067ffffffffffffffff821117156121d1576121d061217a565b5b80604052505050565b60006121e4611f92565b90506121f082826121a9565b919050565b600067ffffffffffffffff8211156122105761220f61217a565b5b61221982612169565b9050602081019050919050565b82818337600083830152505050565b6000612248612243846121f5565b6121da565b90508281526020810184848401111561226457612263612164565b5b61226f848285612226565b509392505050565b600082601f83011261228c5761228b61215f565b5b813561229c848260208601612235565b91505092915050565b600281106122b257600080fd5b50565b6000813590506122c4816122a5565b92915050565b600080600080600060a086880312156122e6576122e5611f9c565b5b60006122f488828901612025565b955050602061230588828901612025565b945050604086013567ffffffffffffffff81111561232657612325611fa1565b5b61233288828901612277565b9350506060612343888289016122b5565b925050608061235488828901612025565b9150509295509295909350565b60006020828403121561237757612376611f9c565b5b600061238584828501612025565b91505092915050565b600081519050919050565b600082825260208201905092915050565b60005b838110156123c85780820151818401526020810190506123ad565b838111156123d7576000848401525b50505050565b60006123e88261238e565b6123f28185612399565b93506124028185602086016123aa565b61240b81612169565b840191505092915050565b6000602082019050818103600083015261243081846123dd565b905092915050565b600067ffffffffffffffff8211156124535761245261217a565b5b602082029050602081019050919050565b600080fd5b600061247c61247784612438565b6121da565b9050808382526020820190506020840283018581111561249f5761249e612464565b5b835b818110156124c857806124b48882612025565b8452602084019350506020810190506124a1565b5050509392505050565b600082601f8301126124e7576124e661215f565b5b81356124f7848260208601612469565b91505092915050565b600067ffffffffffffffff82111561251b5761251a61217a565b5b61252482612169565b9050602081019050919050565b600061254461253f84612500565b6121da565b9050828152602081018484840111156125605761255f612164565b5b61256b848285612226565b509392505050565b600082601f8301126125885761258761215f565b5b8135612598848260208601612531565b91505092915050565b600080600080600060a086880312156125bd576125bc611f9c565b5b60006125cb88828901611fef565b95505060206125dc88828901611fef565b945050604086013567ffffffffffffffff8111156125fd576125fc611fa1565b5b612609888289016124d2565b935050606086013567ffffffffffffffff81111561262a57612629611fa1565b5b612636888289016124d2565b925050608086013567ffffffffffffffff81111561265757612656611fa1565b5b61266388828901612573565b9150509295509295909350565b600067ffffffffffffffff82111561268b5761268a61217a565b5b602082029050602081019050919050565b60006126af6126aa84612670565b6121da565b905080838252602082019050602084028301858111156126d2576126d1612464565b5b835b818110156126fb57806126e78882611fef565b8452602084019350506020810190506126d4565b5050509392505050565b600082601f83011261271a5761271961215f565b5b813561272a84826020860161269c565b91505092915050565b6000806040838503121561274a57612749611f9c565b5b600083013567ffffffffffffffff81111561276857612767611fa1565b5b61277485828601612705565b925050602083013567ffffffffffffffff81111561279557612794611fa1565b5b6127a1858286016124d2565b9150509250929050565b600081519050919050565b600082825260208201905092915050565b6000819050602082019050919050565b6127e081612004565b82525050565b60006127f283836127d7565b60208301905092915050565b6000602082019050919050565b6000612816826127ab565b61282081856127b6565b935061282b836127c7565b8060005b8381101561285c57815161284388826127e6565b975061284e836127fe565b92505060018101905061282f565b5085935050505092915050565b60006020820190508181036000830152612883818461280b565b905092915050565b60006060820190506128a0600083018661207a565b81810360208301526128b281856123dd565b90506128c16040830184612135565b949350505050565b6128d281611fc6565b82525050565b60006020820190506128ed60008301846128c9565b92915050565b6000806040838503121561290a57612909611f9c565b5b600061291885828601612025565b925050602083013567ffffffffffffffff81111561293957612938611fa1565b5b61294585828601612277565b9150509250929050565b61295881612129565b811461296357600080fd5b50565b6000813590506129758161294f565b92915050565b6000806040838503121561299257612991611f9c565b5b60006129a085828601611fef565b92505060206129b185828601612966565b9150509250929050565b6000819050919050565b60006129e06129db6129d684611fa6565b6129bb565b611fa6565b9050919050565b60006129f2826129c5565b9050919050565b6000612a04826129e7565b9050919050565b612a14816129f9565b82525050565b6000602082019050612a2f6000830184612a0b565b92915050565b60008060408385031215612a4c57612a4b611f9c565b5b6000612a5a85828601611fef565b9250506020612a6b85828601611fef565b9150509250929050565b600080600080600060a08688031215612a9157612a90611f9c565b5b6000612a9f88828901611fef565b9550506020612ab088828901611fef565b9450506040612ac188828901612025565b9350506060612ad288828901612025565b925050608086013567ffffffffffffffff811115612af357612af2611fa1565b5b612aff88828901612573565b9150509295509295909350565b600060208284031215612b2257612b21611f9c565b5b6000612b3084828501611fef565b91505092915050565b7f455243313135353a2061646472657373207a65726f206973206e6f742061207660008201527f616c6964206f776e657200000000000000000000000000000000000000000000602082015250565b6000612b95602a83612399565b9150612ba082612b39565b604082019050919050565b60006020820190508181036000830152612bc481612b88565b9050919050565b7f4e756d626572206f6620636f706965732067726561746572207468616e203000600082015250565b6000612c01601f83612399565b9150612c0c82612bcb565b602082019050919050565b60006020820190508181036000830152612c3081612bf4565b9050919050565b7f746f6b656e207572692067726561746572207468616e20300000000000000000600082015250565b6000612c6d601883612399565b9150612c7882612c37565b602082019050919050565b60006020820190508181036000830152612c9c81612c60565b9050919050565b7f707269636520706572206e66742067726561746572207468616e203000000000600082015250565b6000612cd9601c83612399565b9150612ce482612ca3565b602082019050919050565b60006020820190508181036000830152612d0881612ccc565b9050919050565b7f4e487b7100000000000000000000000000000000000000000000000000000000600052602160045260246000fd5b7f73616c6520747970652073686f756c642062652041756374696f6e20616e642060008201527f496e7374616e7400000000000000000000000000000000000000000000000000602082015250565b6000612d9a602783612399565b9150612da582612d3e565b604082019050919050565b60006020820190508181036000830152612dc981612d8d565b9050919050565b60028110612de157612de0612d0f565b5b50565b6000819050612df282612dd0565b919050565b6000612e0282612de4565b9050919050565b612e1281612df7565b82525050565b600060e082019050612e2d600083018a6128c9565b612e3a602083018961207a565b612e4760408301886128c9565b612e54606083018761207a565b612e61608083018661207a565b612e6e60a0830185612e09565b612e7b60c083018461207a565b98975050505050505050565b7f4e487b7100000000000000000000000000000000000000000000000000000000600052602260045260246000fd5b60006002820490506001821680612ece57607f821691505b60208210811415612ee257612ee1612e87565b5b50919050565b7f455243313135353a2063616c6c6572206973206e6f7420746f6b656e206f776e60008201527f6572206f7220617070726f766564000000000000000000000000000000000000602082015250565b6000612f44602e83612399565b9150612f4f82612ee8565b604082019050919050565b60006020820190508181036000830152612f7381612f37565b9050919050565b7f455243313135353a206163636f756e747320616e6420696473206c656e67746860008201527f206d69736d617463680000000000000000000000000000000000000000000000602082015250565b6000612fd6602983612399565b9150612fe182612f7a565b604082019050919050565b6000602082019050818103600083015261300581612fc9565b9050919050565b7f4e487b7100000000000000000000000000000000000000000000000000000000600052603260045260246000fd5b7f4e487b7100000000000000000000000000000000000000000000000000000000600052601160045260246000fd5b600061307582612004565b91507fffffffffffffffffffffffffffffffffffffffffffffffffffffffffffffffff8214156130a8576130a761303b565b5b600182019050919050565b7f4f776e61626c653a206e6577206f776e657220697320746865207a65726f206160008201527f6464726573730000000000000000000000000000000000000000000000000000602082015250565b600061310f602683612399565b915061311a826130b3565b604082019050919050565b6000602082019050818103600083015261313e81613102565b9050919050565b7f455243313135353a206d696e7420746f20746865207a65726f2061646472657360008201527f7300000000000000000000000000000000000000000000000000000000000000602082015250565b60006131a1602183612399565b91506131ac82613145565b604082019050919050565b600060208201905081810360008301526131d081613194565b9050919050565b60006131e282612004565b91506131ed83612004565b9250827fffffffffffffffffffffffffffffffffffffffffffffffffffffffffffffffff038211156132225761322161303b565b5b828201905092915050565b6000604082019050613242600083018561207a565b61324f602083018461207a565b9392505050565b7f455243313135353a2069647320616e6420616d6f756e7473206c656e6774682060008201527f6d69736d61746368000000000000000000000000000000000000000000000000602082015250565b60006132b2602883612399565b91506132bd82613256565b604082019050919050565b600060208201905081810360008301526132e1816132a5565b9050919050565b7f455243313135353a207472616e7366657220746f20746865207a65726f20616460008201527f6472657373000000000000000000000000000000000000000000000000000000602082015250565b6000613344602583612399565b915061334f826132e8565b604082019050919050565b6000602082019050818103600083015261337381613337565b9050919050565b7f455243313135353a20696e73756666696369656e742062616c616e636520666f60008201527f72207472616e7366657200000000000000000000000000000000000000000000602082015250565b60006133d6602a83612399565b91506133e18261337a565b604082019050919050565b60006020820190508181036000830152613405816133c9565b9050919050565b60006040820190508181036000830152613426818561280b565b9050818103602083015261343a818461280b565b90509392505050565b7f4f776e61626c653a2063616c6c6572206973206e6f7420746865206f776e6572600082015250565b6000613479602083612399565b915061348482613443565b602082019050919050565b600060208201905081810360008301526134a88161346c565b9050919050565b7f455243313135353a2073657474696e6720617070726f76616c2073746174757360008201527f20666f722073656c660000000000000000000000000000000000000000000000602082015250565b600061350b602983612399565b9150613516826134af565b604082019050919050565b6000602082019050818103600083015261353a816134fe565b9050919050565b600081519050919050565b600082825260208201905092915050565b600061356882613541565b613572818561354c565b93506135828185602086016123aa565b61358b81612169565b840191505092915050565b600060a0820190506135ab60008301886128c9565b6135b860208301876128c9565b6135c5604083018661207a565b6135d2606083018561207a565b81810360808301526135e4818461355d565b90509695505050505050565b6000815190506135ff816120d0565b92915050565b60006020828403121561361b5761361a611f9c565b5b6000613629848285016135f0565b91505092915050565b60008160e01c9050919050565b600060033d111561365e5760046000803e61365b600051613632565b90505b90565b600060443d1015613671576136f4565b613679611f92565b60043d036004823e80513d602482011167ffffffffffffffff821117156136a15750506136f4565b808201805167ffffffffffffffff8111156136bf57505050506136f4565b80602083010160043d0385018111156136dc5750505050506136f4565b6136eb826020018501866121a9565b82955050505050505b90565b7f455243313135353a207472616e7366657220746f206e6f6e2d4552433131353560008201527f526563656976657220696d706c656d656e746572000000000000000000000000602082015250565b6000613753603483612399565b915061375e826136f7565b604082019050919050565b6000602082019050818103600083015261378281613746565b9050919050565b7f455243313135353a204552433131353552656365697665722072656a6563746560008201527f6420746f6b656e73000000000000000000000000000000000000000000000000602082015250565b60006137e5602883612399565b91506137f082613789565b604082019050919050565b60006020820190508181036000830152613814816137d8565b9050919050565b600060a08201905061383060008301886128c9565b61383d60208301876128c9565b818103604083015261384f818661280b565b90508181036060830152613863818561280b565b90508181036080830152613877818461355d565b9050969550505050505056fea26469706673582212205df0475dee9256c4a4d1377d8c16603d2b97e047f59b6225685a7bd6bf17c99c64736f6c63430008090033",
  "linkReferences": {},
  "deployedLinkReferences": {}
}