{
  "_format": "hh-sol-artifact-1",
  "contractName": "Erc721",
  "sourceName": "contracts/airdrop.sol",
  "abi": [
    {
      "inputs": [],
      "stateMutability": "nonpayable",
      "type": "constructor"
    },
    {
      "anonymous": false,
      "inputs": [
        {
          "indexed": true,
          "internalType": "address",
          "name": "owner",
          "type": "address"
        },
        {
          "indexed": true,
          "internalType": "address",
          "name": "approved",
          "type": "address"
        },
        {
          "indexed": true,
          "internalType": "uint256",
          "name": "tokenId",
          "type": "uint256"
        }
      ],
      "name": "Approval",
      "type": "event"
    },
    {
      "anonymous": false,
      "inputs": [
        {
          "indexed": true,
          "internalType": "address",
          "name": "owner",
          "type": "address"
        },
        {
          "indexed": true,
          "internalType": "address",
          "name": "operator",
          "type": "address"
        },
        {
          "indexed": false,
          "internalType": "bool",
          "name": "approved",
          "type": "bool"
        }
      ],
      "name": "ApprovalForAll",
      "type": "event"
    },
    {
      "anonymous": false,
      "inputs": [
        {
          "indexed": true,
          "internalType": "address",
          "name": "previousOwner",
          "type": "address"
        },
        {
          "indexed": true,
          "internalType": "address",
          "name": "newOwner",
          "type": "address"
        }
      ],
      "name": "OwnershipTransferred",
      "type": "event"
    },
    {
      "anonymous": false,
      "inputs": [
        {
          "indexed": false,
          "internalType": "address",
          "name": "account",
          "type": "address"
        }
      ],
      "name": "Paused",
      "type": "event"
    },
    {
      "anonymous": false,
      "inputs": [
        {
          "indexed": true,
          "internalType": "address",
          "name": "from",
          "type": "address"
        },
        {
          "indexed": true,
          "internalType": "address",
          "name": "to",
          "type": "address"
        },
        {
          "indexed": true,
          "internalType": "uint256",
          "name": "tokenId",
          "type": "uint256"
        }
      ],
      "name": "Transfer",
      "type": "event"
    },
    {
      "anonymous": false,
      "inputs": [
        {
          "indexed": false,
          "internalType": "address",
          "name": "account",
          "type": "address"
        }
      ],
      "name": "Unpaused",
      "type": "event"
    },
    {
      "inputs": [
        {
          "internalType": "address",
          "name": "",
          "type": "address"
        }
      ],
      "name": "MDAccount",
      "outputs": [
        {
          "internalType": "address",
          "name": "owner",
          "type": "address"
        },
        {
          "internalType": "uint256",
          "name": "whiteminttoken",
          "type": "uint256"
        },
        {
          "internalType": "uint256",
          "name": "publicminttoken",
          "type": "uint256"
        },
        {
          "internalType": "uint256",
          "name": "airdroptokens",
          "type": "uint256"
        }
      ],
      "stateMutability": "view",
      "type": "function"
    },
    {
      "inputs": [],
      "name": "PublicMinted",
      "outputs": [
        {
          "internalType": "bool",
          "name": "",
          "type": "bool"
        }
      ],
      "stateMutability": "view",
      "type": "function"
    },
    {
      "inputs": [],
      "name": "WhiteListMint",
      "outputs": [],
      "stateMutability": "payable",
      "type": "function"
    },
    {
      "inputs": [],
      "name": "WhiteListed",
      "outputs": [
        {
          "internalType": "bool",
          "name": "",
          "type": "bool"
        }
      ],
      "stateMutability": "view",
      "type": "function"
    },
    {
      "inputs": [],
      "name": "_tokenIdCounter",
      "outputs": [
        {
          "internalType": "uint256",
          "name": "_value",
          "type": "uint256"
        }
      ],
      "stateMutability": "view",
      "type": "function"
    },
    {
      "inputs": [],
      "name": "activewhite",
      "outputs": [],
      "stateMutability": "nonpayable",
      "type": "function"
    },
    {
      "inputs": [
        {
          "internalType": "address",
          "name": "_whiteListAddress",
          "type": "address"
        }
      ],
      "name": "addWhiteList",
      "outputs": [],
      "stateMutability": "nonpayable",
      "type": "function"
    },
    {
      "inputs": [
        {
          "internalType": "address",
          "name": "ac_id",
          "type": "address"
        }
      ],
      "name": "addwhite",
      "outputs": [],
      "stateMutability": "nonpayable",
      "type": "function"
    },
    {
      "inputs": [
        {
          "internalType": "address[]",
          "name": "addresses",
          "type": "address[]"
        }
      ],
      "name": "airdrop",
      "outputs": [],
      "stateMutability": "nonpayable",
      "type": "function"
    },
    {
      "inputs": [
        {
          "internalType": "address",
          "name": "to",
          "type": "address"
        },
        {
          "internalType": "uint256",
          "name": "tokenId",
          "type": "uint256"
        }
      ],
      "name": "approve",
      "outputs": [],
      "stateMutability": "nonpayable",
      "type": "function"
    },
    {
      "inputs": [
        {
          "internalType": "address",
          "name": "owner",
          "type": "address"
        }
      ],
      "name": "balanceOf",
      "outputs": [
        {
          "internalType": "uint256",
          "name": "",
          "type": "uint256"
        }
      ],
      "stateMutability": "view",
      "type": "function"
    },
    {
      "inputs": [
        {
          "internalType": "address",
          "name": "_deleteAddress",
          "type": "address"
        }
      ],
      "name": "deleteWhiteList",
      "outputs": [],
      "stateMutability": "nonpayable",
      "type": "function"
    },
    {
      "inputs": [
        {
          "internalType": "uint256",
          "name": "tokenId",
          "type": "uint256"
        }
      ],
      "name": "getApproved",
      "outputs": [
        {
          "internalType": "address",
          "name": "",
          "type": "address"
        }
      ],
      "stateMutability": "view",
      "type": "function"
    },
    {
      "inputs": [
        {
          "internalType": "address",
          "name": "owner",
          "type": "address"
        },
        {
          "internalType": "address",
          "name": "operator",
          "type": "address"
        }
      ],
      "name": "isApprovedForAll",
      "outputs": [
        {
          "internalType": "bool",
          "name": "",
          "type": "bool"
        }
      ],
      "stateMutability": "view",
      "type": "function"
    },
    {
      "inputs": [],
      "name": "isWhiteListed",
      "outputs": [
        {
          "internalType": "uint256",
          "name": "",
          "type": "uint256"
        }
      ],
      "stateMutability": "view",
      "type": "function"
    },
    {
      "inputs": [],
      "name": "name",
      "outputs": [
        {
          "internalType": "string",
          "name": "",
          "type": "string"
        }
      ],
      "stateMutability": "view",
      "type": "function"
    },
    {
      "inputs": [],
      "name": "owner",
      "outputs": [
        {
          "internalType": "address",
          "name": "",
          "type": "address"
        }
      ],
      "stateMutability": "view",
      "type": "function"
    },
    {
      "inputs": [
        {
          "internalType": "uint256",
          "name": "tokenId",
          "type": "uint256"
        }
      ],
      "name": "ownerOf",
      "outputs": [
        {
          "internalType": "address",
          "name": "",
          "type": "address"
        }
      ],
      "stateMutability": "view",
      "type": "function"
    },
    {
      "inputs": [],
      "name": "pause",
      "outputs": [],
      "stateMutability": "nonpayable",
      "type": "function"
    },
    {
      "inputs": [],
      "name": "paused",
      "outputs": [
        {
          "internalType": "bool",
          "name": "",
          "type": "bool"
        }
      ],
      "stateMutability": "view",
      "type": "function"
    },
    {
      "inputs": [],
      "name": "publicMint",
      "outputs": [],
      "stateMutability": "payable",
      "type": "function"
    },
    {
      "inputs": [],
      "name": "publicMintFees",
      "outputs": [
        {
          "internalType": "uint256",
          "name": "",
          "type": "uint256"
        }
      ],
      "stateMutability": "view",
      "type": "function"
    },
    {
      "inputs": [
        {
          "internalType": "address",
          "name": "",
          "type": "address"
        }
      ],
      "name": "publicmint",
      "outputs": [
        {
          "internalType": "uint256",
          "name": "",
          "type": "uint256"
        }
      ],
      "stateMutability": "view",
      "type": "function"
    },
    {
      "inputs": [],
      "name": "publicwhite",
      "outputs": [],
      "stateMutability": "nonpayable",
      "type": "function"
    },
    {
      "inputs": [],
      "name": "renounceOwnership",
      "outputs": [],
      "stateMutability": "nonpayable",
      "type": "function"
    },
    {
      "inputs": [
        {
          "internalType": "address",
          "name": "to",
          "type": "address"
        }
      ],
      "name": "safeMint",
      "outputs": [],
      "stateMutability": "nonpayable",
      "type": "function"
    },
    {
      "inputs": [
        {
          "internalType": "address",
          "name": "from",
          "type": "address"
        },
        {
          "internalType": "address",
          "name": "to",
          "type": "address"
        },
        {
          "internalType": "uint256",
          "name": "tokenId",
          "type": "uint256"
        }
      ],
      "name": "safeTransferFrom",
      "outputs": [],
      "stateMutability": "nonpayable",
      "type": "function"
    },
    {
      "inputs": [
        {
          "internalType": "address",
          "name": "from",
          "type": "address"
        },
        {
          "internalType": "address",
          "name": "to",
          "type": "address"
        },
        {
          "internalType": "uint256",
          "name": "tokenId",
          "type": "uint256"
        },
        {
          "internalType": "bytes",
          "name": "data",
          "type": "bytes"
        }
      ],
      "name": "safeTransferFrom",
      "outputs": [],
      "stateMutability": "nonpayable",
      "type": "function"
    },
    {
      "inputs": [
        {
          "internalType": "address",
          "name": "operator",
          "type": "address"
        },
        {
          "internalType": "bool",
          "name": "approved",
          "type": "bool"
        }
      ],
      "name": "setApprovalForAll",
      "outputs": [],
      "stateMutability": "nonpayable",
      "type": "function"
    },
    {
      "inputs": [
        {
          "internalType": "uint256",
          "name": "_maxSupply",
          "type": "uint256"
        }
      ],
      "name": "setMaxSupply",
      "outputs": [],
      "stateMutability": "nonpayable",
      "type": "function"
    },
    {
      "inputs": [
        {
          "internalType": "uint256",
          "name": "_mintFees",
          "type": "uint256"
        }
      ],
      "name": "setMintFees",
      "outputs": [],
      "stateMutability": "nonpayable",
      "type": "function"
    },
    {
      "inputs": [
        {
          "internalType": "address",
          "name": "addresses",
          "type": "address"
        }
      ],
      "name": "setWhitelist",
      "outputs": [],
      "stateMutability": "nonpayable",
      "type": "function"
    },
    {
      "inputs": [
        {
          "internalType": "bytes4",
          "name": "interfaceId",
          "type": "bytes4"
        }
      ],
      "name": "supportsInterface",
      "outputs": [
        {
          "internalType": "bool",
          "name": "",
          "type": "bool"
        }
      ],
      "stateMutability": "view",
      "type": "function"
    },
    {
      "inputs": [],
      "name": "symbol",
      "outputs": [
        {
          "internalType": "string",
          "name": "",
          "type": "string"
        }
      ],
      "stateMutability": "view",
      "type": "function"
    },
    {
      "inputs": [
        {
          "internalType": "uint256",
          "name": "index",
          "type": "uint256"
        }
      ],
      "name": "tokenByIndex",
      "outputs": [
        {
          "internalType": "uint256",
          "name": "",
          "type": "uint256"
        }
      ],
      "stateMutability": "view",
      "type": "function"
    },
    {
      "inputs": [
        {
          "internalType": "address",
          "name": "owner",
          "type": "address"
        },
        {
          "internalType": "uint256",
          "name": "index",
          "type": "uint256"
        }
      ],
      "name": "tokenOfOwnerByIndex",
      "outputs": [
        {
          "internalType": "uint256",
          "name": "",
          "type": "uint256"
        }
      ],
      "stateMutability": "view",
      "type": "function"
    },
    {
      "inputs": [
        {
          "internalType": "uint256",
          "name": "tokenId",
          "type": "uint256"
        }
      ],
      "name": "tokenURI",
      "outputs": [
        {
          "internalType": "string",
          "name": "",
          "type": "string"
        }
      ],
      "stateMutability": "view",
      "type": "function"
    },
    {
      "inputs": [],
      "name": "totalSupply",
      "outputs": [
        {
          "internalType": "uint256",
          "name": "",
          "type": "uint256"
        }
      ],
      "stateMutability": "view",
      "type": "function"
    },
    {
      "inputs": [
        {
          "internalType": "address",
          "name": "from",
          "type": "address"
        },
        {
          "internalType": "address",
          "name": "to",
          "type": "address"
        },
        {
          "internalType": "uint256",
          "name": "tokenId",
          "type": "uint256"
        }
      ],
      "name": "transferFrom",
      "outputs": [],
      "stateMutability": "nonpayable",
      "type": "function"
    },
    {
      "inputs": [
        {
          "internalType": "address",
          "name": "newOwner",
          "type": "address"
        }
      ],
      "name": "transferOwnership",
      "outputs": [],
      "stateMutability": "nonpayable",
      "type": "function"
    },
    {
      "inputs": [],
      "name": "unpause",
      "outputs": [],
      "stateMutability": "nonpayable",
      "type": "function"
    },
    {
      "inputs": [
        {
          "internalType": "address",
          "name": "",
          "type": "address"
        }
      ],
      "name": "usertokens",
      "outputs": [
        {
          "internalType": "uint256",
          "name": "",
          "type": "uint256"
        }
      ],
      "stateMutability": "view",
      "type": "function"
    },
    {
      "inputs": [
        {
          "internalType": "address",
          "name": "",
          "type": "address"
        }
      ],
      "name": "whitelist",
      "outputs": [
        {
          "internalType": "bool",
          "name": "",
          "type": "bool"
        }
      ],
      "stateMutability": "view",
      "type": "function"
    }
  ],
  "bytecode": "0x6080604052611388600b556103e8600c55600a600d556000600e556000600f556000601055655af3107a40006012556001601360006101000a81548160ff0219169083151502179055506000601360016101000a81548160ff02191690831515021790555064174876e8006014553480156200007a57600080fd5b506040518060400160405280600681526020017f65726337323100000000000000000000000000000000000000000000000000008152506040518060400160405280600381526020017f77653300000000000000000000000000000000000000000000000000000000008152508160009080519060200190620000ff9291906200022a565b508060019080519060200190620001189291906200022a565b5050506000600a60006101000a81548160ff021916908315150217905550620001566200014a6200015c60201b60201c565b6200016460201b60201c565b6200033f565b600033905090565b6000600a60019054906101000a900473ffffffffffffffffffffffffffffffffffffffff16905081600a60016101000a81548173ffffffffffffffffffffffffffffffffffffffff021916908373ffffffffffffffffffffffffffffffffffffffff1602179055508173ffffffffffffffffffffffffffffffffffffffff168173ffffffffffffffffffffffffffffffffffffffff167f8be0079c531659141344cd1fd0a4f28419497f9722a3daafe3b4186f6b6457e060405160405180910390a35050565b828054620002389062000309565b90600052602060002090601f0160209004810192826200025c5760008555620002a8565b82601f106200027757805160ff1916838001178555620002a8565b82800160010185558215620002a8579182015b82811115620002a75782518255916020019190600101906200028a565b5b509050620002b79190620002bb565b5090565b5b80821115620002d6576000816000905550600101620002bc565b5090565b7f4e487b7100000000000000000000000000000000000000000000000000000000600052602260045260246000fd5b600060028204905060018216806200032257607f821691505b60208210811415620003395762000338620002da565b5b50919050565b614972806200034f6000396000f3fe60806040526004361061025c5760003560e01c80636f8b44b01161014457806398a1d241116100b6578063c87b56dd1161007a578063c87b56dd1461087f578063d05a0e11146108bc578063e7cd4a04146108f9578063e985e9c514610922578063ef674e661461095f578063f2fde38b1461098a5761025c565b806398a1d241146107885780639b19251a146107c5578063a22cb46514610802578063b88d4fde1461082b578063c5fe17dc146108545761025c565b806384c4bd4b1161010857806384c4bd4b1461069e578063854cff2f146106c95780638da5cb5b146106f25780638e75264b1461071d57806395d89b411461074657806398810350146107715761025c565b80636f8b44b0146105e157806370a082311461060a578063715018a614610647578063729ad39e1461065e5780638456cb59146106875761025c565b806326092b83116101dd57806342842e0e116101a157806342842e0e146104de5780634580ecb4146105075780634f6ccce7146105115780635a4e48ba1461054e5780635c975abb146105795780636352211e146105a45761025c565b806326092b831461042e5780632f745c5914610438578063308ef610146104755780633f4ba83a1461049e57806340d097c3146104b55761025c565b806309932c1d1161022457806309932c1d1461035857806314d73c101461036f57806317212aa0146103af57806318160ddd146103da57806323b872dd146104055761025c565b806301ffc9a71461026157806306b6f7e91461029e57806306fdde03146102c7578063081812fc146102f2578063095ea7b31461032f575b600080fd5b34801561026d57600080fd5b50610288600480360381019061028391906132c2565b6109b3565b604051610295919061330a565b60405180910390f35b3480156102aa57600080fd5b506102c560048036038101906102c0919061335b565b6109c5565b005b3480156102d357600080fd5b506102dc6109d7565b6040516102e99190613421565b60405180910390f35b3480156102fe57600080fd5b506103196004803603810190610314919061335b565b610a69565b6040516103269190613484565b60405180910390f35b34801561033b57600080fd5b50610356600480360381019061035191906134cb565b610aaf565b005b34801561036457600080fd5b5061036d610bc7565b005b34801561037b57600080fd5b506103966004803603810190610391919061350b565b610c07565b6040516103a69493929190613547565b60405180910390f35b3480156103bb57600080fd5b506103c4610c57565b6040516103d1919061358c565b60405180910390f35b3480156103e657600080fd5b506103ef610c5d565b6040516103fc919061358c565b60405180910390f35b34801561041157600080fd5b5061042c600480360381019061042791906135a7565b610c6a565b005b610436610cca565b005b34801561044457600080fd5b5061045f600480360381019061045a91906134cb565b610db7565b60405161046c919061358c565b60405180910390f35b34801561048157600080fd5b5061049c6004803603810190610497919061350b565b610e5c565b005b3480156104aa57600080fd5b506104b3610eb6565b005b3480156104c157600080fd5b506104dc60048036038101906104d7919061350b565b610ec8565b005b3480156104ea57600080fd5b50610505600480360381019061050091906135a7565b610ef6565b005b61050f610f16565b005b34801561051d57600080fd5b506105386004803603810190610533919061335b565b611144565b604051610545919061358c565b60405180910390f35b34801561055a57600080fd5b506105636111b5565b604051610570919061330a565b60405180910390f35b34801561058557600080fd5b5061058e6111c8565b60405161059b919061330a565b60405180910390f35b3480156105b057600080fd5b506105cb60048036038101906105c6919061335b565b6111df565b6040516105d89190613484565b60405180910390f35b3480156105ed57600080fd5b506106086004803603810190610603919061335b565b611266565b005b34801561061657600080fd5b50610631600480360381019061062c919061350b565b611278565b60405161063e919061358c565b60405180910390f35b34801561065357600080fd5b5061065c611330565b005b34801561066a57600080fd5b5061068560048036038101906106809190613742565b611344565b005b34801561069357600080fd5b5061069c61160d565b005b3480156106aa57600080fd5b506106b361161f565b6040516106c0919061358c565b60405180910390f35b3480156106d557600080fd5b506106f060048036038101906106eb919061350b565b61162b565b005b3480156106fe57600080fd5b5061070761168e565b6040516107149190613484565b60405180910390f35b34801561072957600080fd5b50610744600480360381019061073f919061350b565b6116b8565b005b34801561075257600080fd5b5061075b611713565b6040516107689190613421565b60405180910390f35b34801561077d57600080fd5b506107866117a5565b005b34801561079457600080fd5b506107af60048036038101906107aa919061350b565b6117e5565b6040516107bc919061358c565b60405180910390f35b3480156107d157600080fd5b506107ec60048036038101906107e7919061350b565b6117fd565b6040516107f9919061330a565b60405180910390f35b34801561080e57600080fd5b50610829600480360381019061082491906137b7565b61181d565b005b34801561083757600080fd5b50610852600480360381019061084d91906138ac565b611833565b005b34801561086057600080fd5b50610869611895565b604051610876919061330a565b60405180910390f35b34801561088b57600080fd5b506108a660048036038101906108a1919061335b565b6118a8565b6040516108b39190613421565b60405180910390f35b3480156108c857600080fd5b506108e360048036038101906108de919061350b565b611910565b6040516108f0919061358c565b60405180910390f35b34801561090557600080fd5b50610920600480360381019061091b919061350b565b611928565b005b34801561092e57600080fd5b506109496004803603810190610944919061392f565b61198b565b604051610956919061330a565b60405180910390f35b34801561096b57600080fd5b50610974611a1f565b604051610981919061358c565b60405180910390f35b34801561099657600080fd5b506109b160048036038101906109ac919061350b565b611a25565b005b60006109be82611aa9565b9050919050565b6109cd611b23565b8060128190555050565b6060600080546109e69061399e565b80601f0160208091040260200160405190810160405280929190818152602001828054610a129061399e565b8015610a5f5780601f10610a3457610100808354040283529160200191610a5f565b820191906000526020600020905b815481529060010190602001808311610a4257829003601f168201915b5050505050905090565b6000610a7482611ba1565b6004600083815260200190815260200160002060009054906101000a900473ffffffffffffffffffffffffffffffffffffffff169050919050565b6000610aba826111df565b90508073ffffffffffffffffffffffffffffffffffffffff168373ffffffffffffffffffffffffffffffffffffffff161415610b2b576040517f08c379a0000000000000000000000000000000000000000000000000000000008152600401610b2290613a42565b60405180910390fd5b8073ffffffffffffffffffffffffffffffffffffffff16610b4a611bec565b73ffffffffffffffffffffffffffffffffffffffff161480610b795750610b7881610b73611bec565b61198b565b5b610bb8576040517f08c379a0000000000000000000000000000000000000000000000000000000008152600401610baf90613ad4565b60405180910390fd5b610bc28383611bf4565b505050565b610bcf611b23565b6001601360016101000a81548160ff0219169083151502179055506000601360006101000a81548160ff021916908315150217905550565b60176020528060005260406000206000915090508060000160009054906101000a900473ffffffffffffffffffffffffffffffffffffffff16908060010154908060020154908060030154905084565b60125481565b6000600880549050905090565b610c7b610c75611bec565b82611cad565b610cba576040517f08c379a0000000000000000000000000000000000000000000000000000000008152600401610cb190613b66565b60405180910390fd5b610cc5838383611d42565b505050565b601360009054906101000a900460ff16610d19576040517f08c379a0000000000000000000000000000000000000000000000000000000008152600401610d1090613bd2565b60405180910390fd5b6509184e72a000341015610d62576040517f08c379a0000000000000000000000000000000000000000000000000000000008152600401610d5990613c3e565b60405180910390fd5b600b54610d6d610c5d565b10610dad576040517f08c379a0000000000000000000000000000000000000000000000000000000008152600401610da490613caa565b60405180910390fd5b610db561203c565b565b6000610dc283611278565b8210610e03576040517f08c379a0000000000000000000000000000000000000000000000000000000008152600401610dfa90613d3c565b60405180910390fd5b600660008473ffffffffffffffffffffffffffffffffffffffff1673ffffffffffffffffffffffffffffffffffffffff168152602001908152602001600020600083815260200190815260200160002054905092915050565b610e64611b23565b601660008273ffffffffffffffffffffffffffffffffffffffff1673ffffffffffffffffffffffffffffffffffffffff16815260200190815260200160002060006101000a81549060ff021916905550565b610ebe611b23565b610ec661213b565b565b610ed0611b23565b6000610edc601961219e565b9050610ee860196121ac565b610ef282826121c2565b5050565b610f1183838360405180602001604052806000815250611833565b505050565b601360019054906101000a900460ff16610f65576040517f08c379a0000000000000000000000000000000000000000000000000000000008152600401610f5c90613da8565b60405180910390fd5b60011515601660003373ffffffffffffffffffffffffffffffffffffffff1673ffffffffffffffffffffffffffffffffffffffff16815260200190815260200160002060009054906101000a900460ff16151514610ff8576040517f08c379a0000000000000000000000000000000000000000000000000000000008152600401610fef90613e14565b60405180910390fd5b6002601760003373ffffffffffffffffffffffffffffffffffffffff1673ffffffffffffffffffffffffffffffffffffffff168152602001908152602001600020600101541061107d576040517f08c379a000000000000000000000000000000000000000000000000000000000815260040161107490613e80565b60405180910390fd5b600c54611088610c5d565b106110c8576040517f08c379a00000000000000000000000000000000000000000000000000000000081526004016110bf90613eec565b60405180910390fd5b6110d061203c565b601060008154809291906110e390613f3b565b91905055506001601760003373ffffffffffffffffffffffffffffffffffffffff1673ffffffffffffffffffffffffffffffffffffffff168152602001908152602001600020600101600082825461113b9190613f84565b92505081905550565b600061114e610c5d565b821061118f576040517f08c379a00000000000000000000000000000000000000000000000000000000081526004016111869061404c565b60405180910390fd5b600882815481106111a3576111a261406c565b5b90600052602060002001549050919050565b601360019054906101000a900460ff1681565b6000600a60009054906101000a900460ff16905090565b6000806111eb836121e0565b9050600073ffffffffffffffffffffffffffffffffffffffff168173ffffffffffffffffffffffffffffffffffffffff16141561125d576040517f08c379a0000000000000000000000000000000000000000000000000000000008152600401611254906140e7565b60405180910390fd5b80915050919050565b61126e611b23565b80600b8190555050565b60008073ffffffffffffffffffffffffffffffffffffffff168273ffffffffffffffffffffffffffffffffffffffff1614156112e9576040517f08c379a00000000000000000000000000000000000000000000000000000000081526004016112e090614179565b60405180910390fd5b600360008373ffffffffffffffffffffffffffffffffffffffff1673ffffffffffffffffffffffffffffffffffffffff168152602001908152602001600020549050919050565b611338611b23565b611342600061221d565b565b61134c611b23565b60005b8151811015611609576005601760008484815181106113715761137061406c565b5b602002602001015173ffffffffffffffffffffffffffffffffffffffff1673ffffffffffffffffffffffffffffffffffffffff16815260200190815260200160002060030154601760008585815181106113ce576113cd61406c565b5b602002602001015173ffffffffffffffffffffffffffffffffffffffff1673ffffffffffffffffffffffffffffffffffffffff168152602001908152602001600020600201546017600086868151811061142b5761142a61406c565b5b602002602001015173ffffffffffffffffffffffffffffffffffffffff1673ffffffffffffffffffffffffffffffffffffffff1681526020019081526020016000206001015461147b9190613f84565b6114859190613f84565b1061148f576115f6565b600061149b601961219e565b90506114a760196121ac565b6114cb8383815181106114bd576114bc61406c565b5b6020026020010151826121c2565b8282815181106114de576114dd61406c565b5b6020026020010151601760008585815181106114fd576114fc61406c565b5b602002602001015173ffffffffffffffffffffffffffffffffffffffff1673ffffffffffffffffffffffffffffffffffffffff16815260200190815260200160002060000160006101000a81548173ffffffffffffffffffffffffffffffffffffffff021916908373ffffffffffffffffffffffffffffffffffffffff1602179055506001601760008585815181106115995761159861406c565b5b602002602001015173ffffffffffffffffffffffffffffffffffffffff1673ffffffffffffffffffffffffffffffffffffffff16815260200190815260200160002060030160008282546115ed9190613f84565b92505081905550505b808061160190613f3b565b91505061134f565b5050565b611615611b23565b61161d6122e3565b565b60198060000154905081565b611633611b23565b6001601660008373ffffffffffffffffffffffffffffffffffffffff1673ffffffffffffffffffffffffffffffffffffffff16815260200190815260200160002060006101000a81548160ff02191690831515021790555050565b6000600a60019054906101000a900473ffffffffffffffffffffffffffffffffffffffff16905090565b6001601660008373ffffffffffffffffffffffffffffffffffffffff1673ffffffffffffffffffffffffffffffffffffffff16815260200190815260200160002060006101000a81548160ff02191690831515021790555050565b6060600180546117229061399e565b80601f016020809104026020016040519081016040528092919081815260200182805461174e9061399e565b801561179b5780601f106117705761010080835404028352916020019161179b565b820191906000526020600020905b81548152906001019060200180831161177e57829003601f168201915b5050505050905090565b6117ad611b23565b6000601360016101000a81548160ff0219169083151502179055506001601360006101000a81548160ff021916908315150217905550565b60186020528060005260406000206000915090505481565b60166020528060005260406000206000915054906101000a900460ff1681565b61182f611828611bec565b8383612346565b5050565b61184461183e611bec565b83611cad565b611883576040517f08c379a000000000000000000000000000000000000000000000000000000000815260040161187a90613b66565b60405180910390fd5b61188f848484846124b3565b50505050565b601360009054906101000a900460ff1681565b60606118b382611ba1565b60006118bd61250f565b905060008151116118dd5760405180602001604052806000815250611908565b806118e78461254c565b6040516020016118f89291906141d5565b6040516020818303038152906040525b915050919050565b60156020528060005260406000206000915090505481565b611930611b23565b6001601660008373ffffffffffffffffffffffffffffffffffffffff1673ffffffffffffffffffffffffffffffffffffffff16815260200190815260200160002060006101000a81548160ff02191690831515021790555050565b6000600560008473ffffffffffffffffffffffffffffffffffffffff1673ffffffffffffffffffffffffffffffffffffffff16815260200190815260200160002060008373ffffffffffffffffffffffffffffffffffffffff1673ffffffffffffffffffffffffffffffffffffffff16815260200190815260200160002060009054906101000a900460ff16905092915050565b60115481565b611a2d611b23565b600073ffffffffffffffffffffffffffffffffffffffff168173ffffffffffffffffffffffffffffffffffffffff161415611a9d576040517f08c379a0000000000000000000000000000000000000000000000000000000008152600401611a949061426b565b60405180910390fd5b611aa68161221d565b50565b60007f780e9d63000000000000000000000000000000000000000000000000000000007bffffffffffffffffffffffffffffffffffffffffffffffffffffffff1916827bffffffffffffffffffffffffffffffffffffffffffffffffffffffff19161480611b1c5750611b1b82612624565b5b9050919050565b611b2b611bec565b73ffffffffffffffffffffffffffffffffffffffff16611b4961168e565b73ffffffffffffffffffffffffffffffffffffffff1614611b9f576040517f08c379a0000000000000000000000000000000000000000000000000000000008152600401611b96906142d7565b60405180910390fd5b565b611baa81612706565b611be9576040517f08c379a0000000000000000000000000000000000000000000000000000000008152600401611be0906140e7565b60405180910390fd5b50565b600033905090565b816004600083815260200190815260200160002060006101000a81548173ffffffffffffffffffffffffffffffffffffffff021916908373ffffffffffffffffffffffffffffffffffffffff160217905550808273ffffffffffffffffffffffffffffffffffffffff16611c67836111df565b73ffffffffffffffffffffffffffffffffffffffff167f8c5be1e5ebec7d5bd14f71427d1e84f3dd0314c0f7b2291e5b200ac8c7c3b92560405160405180910390a45050565b600080611cb9836111df565b90508073ffffffffffffffffffffffffffffffffffffffff168473ffffffffffffffffffffffffffffffffffffffff161480611cfb5750611cfa818561198b565b5b80611d3957508373ffffffffffffffffffffffffffffffffffffffff16611d2184610a69565b73ffffffffffffffffffffffffffffffffffffffff16145b91505092915050565b8273ffffffffffffffffffffffffffffffffffffffff16611d62826111df565b73ffffffffffffffffffffffffffffffffffffffff1614611db8576040517f08c379a0000000000000000000000000000000000000000000000000000000008152600401611daf90614369565b60405180910390fd5b600073ffffffffffffffffffffffffffffffffffffffff168273ffffffffffffffffffffffffffffffffffffffff161415611e28576040517f08c379a0000000000000000000000000000000000000000000000000000000008152600401611e1f906143fb565b60405180910390fd5b611e358383836001612747565b8273ffffffffffffffffffffffffffffffffffffffff16611e55826111df565b73ffffffffffffffffffffffffffffffffffffffff1614611eab576040517f08c379a0000000000000000000000000000000000000000000000000000000008152600401611ea290614369565b60405180910390fd5b6004600082815260200190815260200160002060006101000a81549073ffffffffffffffffffffffffffffffffffffffff02191690556001600360008573ffffffffffffffffffffffffffffffffffffffff1673ffffffffffffffffffffffffffffffffffffffff168152602001908152602001600020600082825403925050819055506001600360008473ffffffffffffffffffffffffffffffffffffffff1673ffffffffffffffffffffffffffffffffffffffff16815260200190815260200160002060008282540192505081905550816002600083815260200190815260200160002060006101000a81548173ffffffffffffffffffffffffffffffffffffffff021916908373ffffffffffffffffffffffffffffffffffffffff160217905550808273ffffffffffffffffffffffffffffffffffffffff168473ffffffffffffffffffffffffffffffffffffffff167fddf252ad1be2c89b69c2b068fc378daa952ba7f163c4a11628f55a4df523b3ef60405160405180910390a46120378383836001612761565b505050565b600d54601560003373ffffffffffffffffffffffffffffffffffffffff1673ffffffffffffffffffffffffffffffffffffffff16815260200190815260200160002054106120bf576040517f08c379a00000000000000000000000000000000000000000000000000000000081526004016120b690614467565b60405180910390fd5b60006120cb601961219e565b90506120d760196121ac565b6120e133826121c2565b6001601560003373ffffffffffffffffffffffffffffffffffffffff1673ffffffffffffffffffffffffffffffffffffffff16815260200190815260200160002060008282546121319190613f84565b9250508190555050565b612143612767565b6000600a60006101000a81548160ff0219169083151502179055507f5db9ee0a495bf2e6ff9c91a7834c1ba4fdd244a5e8aa4e537bd38aeae4b073aa612187611bec565b6040516121949190613484565b60405180910390a1565b600081600001549050919050565b6001816000016000828254019250508190555050565b6121dc8282604051806020016040528060008152506127b0565b5050565b60006002600083815260200190815260200160002060009054906101000a900473ffffffffffffffffffffffffffffffffffffffff169050919050565b6000600a60019054906101000a900473ffffffffffffffffffffffffffffffffffffffff16905081600a60016101000a81548173ffffffffffffffffffffffffffffffffffffffff021916908373ffffffffffffffffffffffffffffffffffffffff1602179055508173ffffffffffffffffffffffffffffffffffffffff168173ffffffffffffffffffffffffffffffffffffffff167f8be0079c531659141344cd1fd0a4f28419497f9722a3daafe3b4186f6b6457e060405160405180910390a35050565b6122eb61280b565b6001600a60006101000a81548160ff0219169083151502179055507f62e78cea01bee320cd4e420270b5ea74000d11b0c9f74754ebdbfc544b05a25861232f611bec565b60405161233c9190613484565b60405180910390a1565b8173ffffffffffffffffffffffffffffffffffffffff168373ffffffffffffffffffffffffffffffffffffffff1614156123b5576040517f08c379a00000000000000000000000000000000000000000000000000000000081526004016123ac906144d3565b60405180910390fd5b80600560008573ffffffffffffffffffffffffffffffffffffffff1673ffffffffffffffffffffffffffffffffffffffff16815260200190815260200160002060008473ffffffffffffffffffffffffffffffffffffffff1673ffffffffffffffffffffffffffffffffffffffff16815260200190815260200160002060006101000a81548160ff0219169083151502179055508173ffffffffffffffffffffffffffffffffffffffff168373ffffffffffffffffffffffffffffffffffffffff167f17307eab39ab6107e8899845ad3d59bd9653f200f220920489ca2b5937696c31836040516124a6919061330a565b60405180910390a3505050565b6124be848484611d42565b6124ca84848484612855565b612509576040517f08c379a000000000000000000000000000000000000000000000000000000000815260040161250090614565565b60405180910390fd5b50505050565b60606040518060400160405280600e81526020017f6c6f63616c686f73743a33303030000000000000000000000000000000000000815250905090565b60606000600161255b846129ec565b01905060008167ffffffffffffffff81111561257a576125796135ff565b5b6040519080825280601f01601f1916602001820160405280156125ac5781602001600182028036833780820191505090505b509050600082602001820190505b600115612619578080600190039150507f3031323334353637383961626364656600000000000000000000000000000000600a86061a8153600a858161260357612602614585565b5b049450600085141561261457612619565b6125ba565b819350505050919050565b60007f80ac58cd000000000000000000000000000000000000000000000000000000007bffffffffffffffffffffffffffffffffffffffffffffffffffffffff1916827bffffffffffffffffffffffffffffffffffffffffffffffffffffffff191614806126ef57507f5b5e139f000000000000000000000000000000000000000000000000000000007bffffffffffffffffffffffffffffffffffffffffffffffffffffffff1916827bffffffffffffffffffffffffffffffffffffffffffffffffffffffff1916145b806126ff57506126fe82612b3f565b5b9050919050565b60008073ffffffffffffffffffffffffffffffffffffffff16612728836121e0565b73ffffffffffffffffffffffffffffffffffffffff1614159050919050565b61274f61280b565b61275b84848484612ba9565b50505050565b50505050565b61276f6111c8565b6127ae576040517f08c379a00000000000000000000000000000000000000000000000000000000081526004016127a590614600565b60405180910390fd5b565b6127ba8383612d09565b6127c76000848484612855565b612806576040517f08c379a00000000000000000000000000000000000000000000000000000000081526004016127fd90614565565b60405180910390fd5b505050565b6128136111c8565b15612853576040517f08c379a000000000000000000000000000000000000000000000000000000000815260040161284a9061466c565b60405180910390fd5b565b60006128768473ffffffffffffffffffffffffffffffffffffffff16612f27565b156129df578373ffffffffffffffffffffffffffffffffffffffff1663150b7a0261289f611bec565b8786866040518563ffffffff1660e01b81526004016128c194939291906146e1565b602060405180830381600087803b1580156128db57600080fd5b505af192505050801561290c57506040513d601f19601f820116820180604052508101906129099190614742565b60015b61298f573d806000811461293c576040519150601f19603f3d011682016040523d82523d6000602084013e612941565b606091505b50600081511415612987576040517f08c379a000000000000000000000000000000000000000000000000000000000815260040161297e90614565565b60405180910390fd5b805181602001fd5b63150b7a0260e01b7bffffffffffffffffffffffffffffffffffffffffffffffffffffffff1916817bffffffffffffffffffffffffffffffffffffffffffffffffffffffff1916149150506129e4565b600190505b949350505050565b600080600090507a184f03e93ff9f4daa797ed6e38ed64bf6a1f0100000000000000008310612a4a577a184f03e93ff9f4daa797ed6e38ed64bf6a1f0100000000000000008381612a4057612a3f614585565b5b0492506040810190505b6d04ee2d6d415b85acef81000000008310612a87576d04ee2d6d415b85acef81000000008381612a7d57612a7c614585565b5b0492506020810190505b662386f26fc100008310612ab657662386f26fc100008381612aac57612aab614585565b5b0492506010810190505b6305f5e1008310612adf576305f5e1008381612ad557612ad4614585565b5b0492506008810190505b6127108310612b04576127108381612afa57612af9614585565b5b0492506004810190505b60648310612b275760648381612b1d57612b1c614585565b5b0492506002810190505b600a8310612b36576001810190505b80915050919050565b60007f01ffc9a7000000000000000000000000000000000000000000000000000000007bffffffffffffffffffffffffffffffffffffffffffffffffffffffff1916827bffffffffffffffffffffffffffffffffffffffffffffffffffffffff1916149050919050565b612bb584848484612f4a565b6001811115612bf9576040517f08c379a0000000000000000000000000000000000000000000000000000000008152600401612bf0906147e1565b60405180910390fd5b6000829050600073ffffffffffffffffffffffffffffffffffffffff168573ffffffffffffffffffffffffffffffffffffffff161415612c4157612c3c81612f50565b612c80565b8373ffffffffffffffffffffffffffffffffffffffff168573ffffffffffffffffffffffffffffffffffffffff1614612c7f57612c7e8582612f99565b5b5b600073ffffffffffffffffffffffffffffffffffffffff168473ffffffffffffffffffffffffffffffffffffffff161415612cc357612cbe81613106565b612d02565b8473ffffffffffffffffffffffffffffffffffffffff168473ffffffffffffffffffffffffffffffffffffffff1614612d0157612d0084826131d7565b5b5b5050505050565b600073ffffffffffffffffffffffffffffffffffffffff168273ffffffffffffffffffffffffffffffffffffffff161415612d79576040517f08c379a0000000000000000000000000000000000000000000000000000000008152600401612d709061484d565b60405180910390fd5b612d8281612706565b15612dc2576040517f08c379a0000000000000000000000000000000000000000000000000000000008152600401612db9906148b9565b60405180910390fd5b612dd0600083836001612747565b612dd981612706565b15612e19576040517f08c379a0000000000000000000000000000000000000000000000000000000008152600401612e10906148b9565b60405180910390fd5b6001600360008473ffffffffffffffffffffffffffffffffffffffff1673ffffffffffffffffffffffffffffffffffffffff16815260200190815260200160002060008282540192505081905550816002600083815260200190815260200160002060006101000a81548173ffffffffffffffffffffffffffffffffffffffff021916908373ffffffffffffffffffffffffffffffffffffffff160217905550808273ffffffffffffffffffffffffffffffffffffffff16600073ffffffffffffffffffffffffffffffffffffffff167fddf252ad1be2c89b69c2b068fc378daa952ba7f163c4a11628f55a4df523b3ef60405160405180910390a4612f23600083836001612761565b5050565b6000808273ffffffffffffffffffffffffffffffffffffffff163b119050919050565b50505050565b6008805490506009600083815260200190815260200160002081905550600881908060018154018082558091505060019003906000526020600020016000909190919091505550565b60006001612fa684611278565b612fb091906148d9565b9050600060076000848152602001908152602001600020549050818114613095576000600660008673ffffffffffffffffffffffffffffffffffffffff1673ffffffffffffffffffffffffffffffffffffffff168152602001908152602001600020600084815260200190815260200160002054905080600660008773ffffffffffffffffffffffffffffffffffffffff1673ffffffffffffffffffffffffffffffffffffffff168152602001908152602001600020600084815260200190815260200160002081905550816007600083815260200190815260200160002081905550505b6007600084815260200190815260200160002060009055600660008573ffffffffffffffffffffffffffffffffffffffff1673ffffffffffffffffffffffffffffffffffffffff16815260200190815260200160002060008381526020019081526020016000206000905550505050565b6000600160088054905061311a91906148d9565b905060006009600084815260200190815260200160002054905060006008838154811061314a5761314961406c565b5b90600052602060002001549050806008838154811061316c5761316b61406c565b5b9060005260206000200181905550816009600083815260200190815260200160002081905550600960008581526020019081526020016000206000905560088054806131bb576131ba61490d565b5b6001900381819060005260206000200160009055905550505050565b60006131e283611278565b905081600660008573ffffffffffffffffffffffffffffffffffffffff1673ffffffffffffffffffffffffffffffffffffffff168152602001908152602001600020600083815260200190815260200160002081905550806007600084815260200190815260200160002081905550505050565b6000604051905090565b600080fd5b600080fd5b60007fffffffff0000000000000000000000000000000000000000000000000000000082169050919050565b61329f8161326a565b81146132aa57600080fd5b50565b6000813590506132bc81613296565b92915050565b6000602082840312156132d8576132d7613260565b5b60006132e6848285016132ad565b91505092915050565b60008115159050919050565b613304816132ef565b82525050565b600060208201905061331f60008301846132fb565b92915050565b6000819050919050565b61333881613325565b811461334357600080fd5b50565b6000813590506133558161332f565b92915050565b60006020828403121561337157613370613260565b5b600061337f84828501613346565b91505092915050565b600081519050919050565b600082825260208201905092915050565b60005b838110156133c25780820151818401526020810190506133a7565b838111156133d1576000848401525b50505050565b6000601f19601f8301169050919050565b60006133f382613388565b6133fd8185613393565b935061340d8185602086016133a4565b613416816133d7565b840191505092915050565b6000602082019050818103600083015261343b81846133e8565b905092915050565b600073ffffffffffffffffffffffffffffffffffffffff82169050919050565b600061346e82613443565b9050919050565b61347e81613463565b82525050565b60006020820190506134996000830184613475565b92915050565b6134a881613463565b81146134b357600080fd5b50565b6000813590506134c58161349f565b92915050565b600080604083850312156134e2576134e1613260565b5b60006134f0858286016134b6565b925050602061350185828601613346565b9150509250929050565b60006020828403121561352157613520613260565b5b600061352f848285016134b6565b91505092915050565b61354181613325565b82525050565b600060808201905061355c6000830187613475565b6135696020830186613538565b6135766040830185613538565b6135836060830184613538565b95945050505050565b60006020820190506135a16000830184613538565b92915050565b6000806000606084860312156135c0576135bf613260565b5b60006135ce868287016134b6565b93505060206135df868287016134b6565b92505060406135f086828701613346565b9150509250925092565b600080fd5b7f4e487b7100000000000000000000000000000000000000000000000000000000600052604160045260246000fd5b613637826133d7565b810181811067ffffffffffffffff82111715613656576136556135ff565b5b80604052505050565b6000613669613256565b9050613675828261362e565b919050565b600067ffffffffffffffff821115613695576136946135ff565b5b602082029050602081019050919050565b600080fd5b60006136be6136b98461367a565b61365f565b905080838252602082019050602084028301858111156136e1576136e06136a6565b5b835b8181101561370a57806136f688826134b6565b8452602084019350506020810190506136e3565b5050509392505050565b600082601f830112613729576137286135fa565b5b81356137398482602086016136ab565b91505092915050565b60006020828403121561375857613757613260565b5b600082013567ffffffffffffffff81111561377657613775613265565b5b61378284828501613714565b91505092915050565b613794816132ef565b811461379f57600080fd5b50565b6000813590506137b18161378b565b92915050565b600080604083850312156137ce576137cd613260565b5b60006137dc858286016134b6565b92505060206137ed858286016137a2565b9150509250929050565b600080fd5b600067ffffffffffffffff821115613817576138166135ff565b5b613820826133d7565b9050602081019050919050565b82818337600083830152505050565b600061384f61384a846137fc565b61365f565b90508281526020810184848401111561386b5761386a6137f7565b5b61387684828561382d565b509392505050565b600082601f830112613893576138926135fa565b5b81356138a384826020860161383c565b91505092915050565b600080600080608085870312156138c6576138c5613260565b5b60006138d4878288016134b6565b94505060206138e5878288016134b6565b93505060406138f687828801613346565b925050606085013567ffffffffffffffff81111561391757613916613265565b5b6139238782880161387e565b91505092959194509250565b6000806040838503121561394657613945613260565b5b6000613954858286016134b6565b9250506020613965858286016134b6565b9150509250929050565b7f4e487b7100000000000000000000000000000000000000000000000000000000600052602260045260246000fd5b600060028204905060018216806139b657607f821691505b602082108114156139ca576139c961396f565b5b50919050565b7f4552433732313a20617070726f76616c20746f2063757272656e74206f776e6560008201527f7200000000000000000000000000000000000000000000000000000000000000602082015250565b6000613a2c602183613393565b9150613a37826139d0565b604082019050919050565b60006020820190508181036000830152613a5b81613a1f565b9050919050565b7f4552433732313a20617070726f76652063616c6c6572206973206e6f7420746f60008201527f6b656e206f776e6572206f7220617070726f76656420666f7220616c6c000000602082015250565b6000613abe603d83613393565b9150613ac982613a62565b604082019050919050565b60006020820190508181036000830152613aed81613ab1565b9050919050565b7f4552433732313a2063616c6c6572206973206e6f7420746f6b656e206f776e6560008201527f72206f7220617070726f76656400000000000000000000000000000000000000602082015250565b6000613b50602d83613393565b9150613b5b82613af4565b604082019050919050565b60006020820190508181036000830152613b7f81613b43565b9050919050565b7f5075626c6963204d696e7420697320436c6f7365640000000000000000000000600082015250565b6000613bbc601583613393565b9150613bc782613b86565b602082019050919050565b60006020820190508181036000830152613beb81613baf565b9050919050565b7f6e6f7420656e6f7567682066756e647300000000000000000000000000000000600082015250565b6000613c28601083613393565b9150613c3382613bf2565b602082019050919050565b60006020820190508181036000830152613c5781613c1b565b9050919050565b7f776520736f6c6420746861740000000000000000000000000000000000000000600082015250565b6000613c94600c83613393565b9150613c9f82613c5e565b602082019050919050565b60006020820190508181036000830152613cc381613c87565b9050919050565b7f455243373231456e756d657261626c653a206f776e657220696e646578206f7560008201527f74206f6620626f756e6473000000000000000000000000000000000000000000602082015250565b6000613d26602b83613393565b9150613d3182613cca565b604082019050919050565b60006020820190508181036000830152613d5581613d19565b9050919050565b7f5768697465204d696e7420697320436c6f736564000000000000000000000000600082015250565b6000613d92601483613393565b9150613d9d82613d5c565b602082019050919050565b60006020820190508181036000830152613dc181613d85565b9050919050565b7f75736572206973206e6f742077686974656c6973746564000000000000000000600082015250565b6000613dfe601783613393565b9150613e0982613dc8565b602082019050919050565b60006020820190508181036000830152613e2d81613df1565b9050919050565b7f596f7572207768697465206d696e74206c696d6974206f766572000000000000600082015250565b6000613e6a601a83613393565b9150613e7582613e34565b602082019050919050565b60006020820190508181036000830152613e9981613e5d565b9050919050565b7f6d6178206d696e74207265616368656400000000000000000000000000000000600082015250565b6000613ed6601083613393565b9150613ee182613ea0565b602082019050919050565b60006020820190508181036000830152613f0581613ec9565b9050919050565b7f4e487b7100000000000000000000000000000000000000000000000000000000600052601160045260246000fd5b6000613f4682613325565b91507fffffffffffffffffffffffffffffffffffffffffffffffffffffffffffffffff821415613f7957613f78613f0c565b5b600182019050919050565b6000613f8f82613325565b9150613f9a83613325565b9250827fffffffffffffffffffffffffffffffffffffffffffffffffffffffffffffffff03821115613fcf57613fce613f0c565b5b828201905092915050565b7f455243373231456e756d657261626c653a20676c6f62616c20696e646578206f60008201527f7574206f6620626f756e64730000000000000000000000000000000000000000602082015250565b6000614036602c83613393565b915061404182613fda565b604082019050919050565b6000602082019050818103600083015261406581614029565b9050919050565b7f4e487b7100000000000000000000000000000000000000000000000000000000600052603260045260246000fd5b7f4552433732313a20696e76616c696420746f6b656e2049440000000000000000600082015250565b60006140d1601883613393565b91506140dc8261409b565b602082019050919050565b60006020820190508181036000830152614100816140c4565b9050919050565b7f4552433732313a2061646472657373207a65726f206973206e6f74206120766160008201527f6c6964206f776e65720000000000000000000000000000000000000000000000602082015250565b6000614163602983613393565b915061416e82614107565b604082019050919050565b6000602082019050818103600083015261419281614156565b9050919050565b600081905092915050565b60006141af82613388565b6141b98185614199565b93506141c98185602086016133a4565b80840191505092915050565b60006141e182856141a4565b91506141ed82846141a4565b91508190509392505050565b7f4f776e61626c653a206e6577206f776e657220697320746865207a65726f206160008201527f6464726573730000000000000000000000000000000000000000000000000000602082015250565b6000614255602683613393565b9150614260826141f9565b604082019050919050565b6000602082019050818103600083015261428481614248565b9050919050565b7f4f776e61626c653a2063616c6c6572206973206e6f7420746865206f776e6572600082015250565b60006142c1602083613393565b91506142cc8261428b565b602082019050919050565b600060208201905081810360008301526142f0816142b4565b9050919050565b7f4552433732313a207472616e736665722066726f6d20696e636f72726563742060008201527f6f776e6572000000000000000000000000000000000000000000000000000000602082015250565b6000614353602583613393565b915061435e826142f7565b604082019050919050565b6000602082019050818103600083015261438281614346565b9050919050565b7f4552433732313a207472616e7366657220746f20746865207a65726f2061646460008201527f7265737300000000000000000000000000000000000000000000000000000000602082015250565b60006143e5602483613393565b91506143f082614389565b604082019050919050565b60006020820190508181036000830152614414816143d8565b9050919050565b7f4d617820746f6b656e7320706572207573657220726561636865640000000000600082015250565b6000614451601b83613393565b915061445c8261441b565b602082019050919050565b6000602082019050818103600083015261448081614444565b9050919050565b7f4552433732313a20617070726f766520746f2063616c6c657200000000000000600082015250565b60006144bd601983613393565b91506144c882614487565b602082019050919050565b600060208201905081810360008301526144ec816144b0565b9050919050565b7f4552433732313a207472616e7366657220746f206e6f6e20455243373231526560008201527f63656976657220696d706c656d656e7465720000000000000000000000000000602082015250565b600061454f603283613393565b915061455a826144f3565b604082019050919050565b6000602082019050818103600083015261457e81614542565b9050919050565b7f4e487b7100000000000000000000000000000000000000000000000000000000600052601260045260246000fd5b7f5061757361626c653a206e6f7420706175736564000000000000000000000000600082015250565b60006145ea601483613393565b91506145f5826145b4565b602082019050919050565b60006020820190508181036000830152614619816145dd565b9050919050565b7f5061757361626c653a2070617573656400000000000000000000000000000000600082015250565b6000614656601083613393565b915061466182614620565b602082019050919050565b6000602082019050818103600083015261468581614649565b9050919050565b600081519050919050565b600082825260208201905092915050565b60006146b38261468c565b6146bd8185614697565b93506146cd8185602086016133a4565b6146d6816133d7565b840191505092915050565b60006080820190506146f66000830187613475565b6147036020830186613475565b6147106040830185613538565b818103606083015261472281846146a8565b905095945050505050565b60008151905061473c81613296565b92915050565b60006020828403121561475857614757613260565b5b60006147668482850161472d565b91505092915050565b7f455243373231456e756d657261626c653a20636f6e736563757469766520747260008201527f616e7366657273206e6f7420737570706f727465640000000000000000000000602082015250565b60006147cb603583613393565b91506147d68261476f565b604082019050919050565b600060208201905081810360008301526147fa816147be565b9050919050565b7f4552433732313a206d696e7420746f20746865207a65726f2061646472657373600082015250565b6000614837602083613393565b915061484282614801565b602082019050919050565b600060208201905081810360008301526148668161482a565b9050919050565b7f4552433732313a20746f6b656e20616c7265616479206d696e74656400000000600082015250565b60006148a3601c83613393565b91506148ae8261486d565b602082019050919050565b600060208201905081810360008301526148d281614896565b9050919050565b60006148e482613325565b91506148ef83613325565b92508282101561490257614901613f0c565b5b828203905092915050565b7f4e487b7100000000000000000000000000000000000000000000000000000000600052603160045260246000fdfea26469706673582212201435196dea0460c4e7276874a0dc512cdf41ba60f122bd0ce53a255888f9829f64736f6c63430008090033",
  "linkReferences": {},
  "deployedLinkReferences": {}
}