{
  "_format": "hh-sol-artifact-1",
  "contractName": "escrowcontract",
  "sourceName": "contracts/escrow.sol",
  "abi": [
    {
      "inputs": [
        {
          "internalType": "address",
          "name": "_tokenaddress",
          "type": "address"
        }
      ],
      "stateMutability": "nonpayable",
      "type": "constructor"
    },
    {
      "anonymous": false,
      "inputs": [
        {
          "indexed": false,
          "internalType": "uint256",
          "name": "",
          "type": "uint256"
        },
        {
          "indexed": false,
          "internalType": "uint256",
          "name": "",
          "type": "uint256"
        },
        {
          "indexed": false,
          "internalType": "uint256",
          "name": "",
          "type": "uint256"
        },
        {
          "indexed": false,
          "internalType": "address",
          "name": "",
          "type": "address"
        },
        {
          "indexed": false,
          "internalType": "address",
          "name": "",
          "type": "address"
        }
      ],
      "name": "orderbought",
      "type": "event"
    },
    {
      "anonymous": false,
      "inputs": [
        {
          "components": [
            {
              "internalType": "address",
              "name": "seller",
              "type": "address"
            },
            {
              "internalType": "uint256",
              "name": "tokenid",
              "type": "uint256"
            },
            {
              "internalType": "uint256",
              "name": "amount",
              "type": "uint256"
            },
            {
              "internalType": "uint256",
              "name": "pricepernft",
              "type": "uint256"
            },
            {
              "internalType": "enum SaleType",
              "name": "saletype",
              "type": "uint8"
            },
            {
              "internalType": "uint256",
              "name": "timeline",
              "type": "uint256"
            }
          ],
          "indexed": false,
          "internalType": "struct escrowcontract.Order",
          "name": "order",
          "type": "tuple"
        },
        {
          "indexed": false,
          "internalType": "uint256",
          "name": "orderNumber",
          "type": "uint256"
        },
        {
          "indexed": false,
          "internalType": "uint256",
          "name": "timeStamp",
          "type": "uint256"
        },
        {
          "indexed": false,
          "internalType": "address",
          "name": "seller",
          "type": "address"
        }
      ],
      "name": "orderplaced",
      "type": "event"
    },
    {
      "anonymous": false,
      "inputs": [
        {
          "indexed": false,
          "internalType": "uint256",
          "name": "ordernumber",
          "type": "uint256"
        },
        {
          "indexed": false,
          "internalType": "uint256",
          "name": "_amount",
          "type": "uint256"
        },
        {
          "indexed": false,
          "internalType": "address",
          "name": "bidder",
          "type": "address"
        },
        {
          "indexed": false,
          "internalType": "uint256",
          "name": "timestamp",
          "type": "uint256"
        }
      ],
      "name": "placebid",
      "type": "event"
    },
    {
      "inputs": [
        {
          "internalType": "uint256",
          "name": "",
          "type": "uint256"
        }
      ],
      "name": "bidMapping",
      "outputs": [
        {
          "internalType": "address",
          "name": "bidder",
          "type": "address"
        },
        {
          "internalType": "uint256",
          "name": "bidvalue",
          "type": "uint256"
        },
        {
          "internalType": "uint256",
          "name": "timestamp",
          "type": "uint256"
        }
      ],
      "stateMutability": "view",
      "type": "function"
    },
    {
      "inputs": [
        {
          "internalType": "address",
          "name": "_nftaddress",
          "type": "address"
        },
        {
          "internalType": "uint256",
          "name": "_ordernumber",
          "type": "uint256"
        },
        {
          "internalType": "uint256",
          "name": "_copynumber",
          "type": "uint256"
        }
      ],
      "name": "buynow",
      "outputs": [],
      "stateMutability": "payable",
      "type": "function"
    },
    {
      "inputs": [
        {
          "internalType": "uint256",
          "name": "_ordernumber",
          "type": "uint256"
        },
        {
          "internalType": "address",
          "name": "_tokenaddress",
          "type": "address"
        }
      ],
      "name": "claimBid",
      "outputs": [],
      "stateMutability": "payable",
      "type": "function"
    },
    {
      "inputs": [
        {
          "internalType": "address",
          "name": "nft",
          "type": "address"
        },
        {
          "internalType": "uint256",
          "name": "_ordernumber",
          "type": "uint256"
        }
      ],
      "name": "get_payment_method",
      "outputs": [
        {
          "internalType": "bool",
          "name": "",
          "type": "bool"
        }
      ],
      "stateMutability": "view",
      "type": "function"
    },
    {
      "inputs": [
        {
          "internalType": "address",
          "name": "",
          "type": "address"
        },
        {
          "internalType": "address",
          "name": "",
          "type": "address"
        },
        {
          "internalType": "uint256[]",
          "name": "",
          "type": "uint256[]"
        },
        {
          "internalType": "uint256[]",
          "name": "",
          "type": "uint256[]"
        },
        {
          "internalType": "bytes",
          "name": "",
          "type": "bytes"
        }
      ],
      "name": "onERC1155BatchReceived",
      "outputs": [
        {
          "internalType": "bytes4",
          "name": "",
          "type": "bytes4"
        }
      ],
      "stateMutability": "nonpayable",
      "type": "function"
    },
    {
      "inputs": [
        {
          "internalType": "address",
          "name": "",
          "type": "address"
        },
        {
          "internalType": "address",
          "name": "",
          "type": "address"
        },
        {
          "internalType": "uint256",
          "name": "",
          "type": "uint256"
        },
        {
          "internalType": "uint256",
          "name": "",
          "type": "uint256"
        },
        {
          "internalType": "bytes",
          "name": "",
          "type": "bytes"
        }
      ],
      "name": "onERC1155Received",
      "outputs": [
        {
          "internalType": "bytes4",
          "name": "",
          "type": "bytes4"
        }
      ],
      "stateMutability": "nonpayable",
      "type": "function"
    },
    {
      "inputs": [
        {
          "internalType": "uint256",
          "name": "",
          "type": "uint256"
        }
      ],
      "name": "orderMapping",
      "outputs": [
        {
          "internalType": "address",
          "name": "seller",
          "type": "address"
        },
        {
          "internalType": "uint256",
          "name": "tokenid",
          "type": "uint256"
        },
        {
          "internalType": "uint256",
          "name": "amount",
          "type": "uint256"
        },
        {
          "internalType": "uint256",
          "name": "pricepernft",
          "type": "uint256"
        },
        {
          "internalType": "enum SaleType",
          "name": "saletype",
          "type": "uint8"
        },
        {
          "internalType": "uint256",
          "name": "timeline",
          "type": "uint256"
        }
      ],
      "stateMutability": "view",
      "type": "function"
    },
    {
      "inputs": [
        {
          "internalType": "uint256",
          "name": "_ordernumber",
          "type": "uint256"
        },
        {
          "internalType": "uint256",
          "name": "_amount",
          "type": "uint256"
        }
      ],
      "name": "placeBid",
      "outputs": [],
      "stateMutability": "nonpayable",
      "type": "function"
    },
    {
      "inputs": [
        {
          "internalType": "address",
          "name": "_nftaddress",
          "type": "address"
        },
        {
          "internalType": "uint256",
          "name": "_tokenid",
          "type": "uint256"
        },
        {
          "internalType": "address",
          "name": "_seller",
          "type": "address"
        },
        {
          "internalType": "uint256",
          "name": "_amount",
          "type": "uint256"
        },
        {
          "internalType": "uint256",
          "name": "_pricepernft",
          "type": "uint256"
        },
        {
          "internalType": "enum SaleType",
          "name": "_saletype",
          "type": "uint8"
        },
        {
          "internalType": "uint256",
          "name": "_timeline",
          "type": "uint256"
        }
      ],
      "name": "placeorder",
      "outputs": [],
      "stateMutability": "nonpayable",
      "type": "function"
    },
    {
      "inputs": [
        {
          "internalType": "bytes4",
          "name": "interfaceId",
          "type": "bytes4"
        }
      ],
      "name": "supportsInterface",
      "outputs": [
        {
          "internalType": "bool",
          "name": "",
          "type": "bool"
        }
      ],
      "stateMutability": "view",
      "type": "function"
    }
  ],
  "bytecode": "0x60806040523480156200001157600080fd5b506040516200291e3803806200291e833981810160405281019062000037919062000131565b336000806101000a81548173ffffffffffffffffffffffffffffffffffffffff021916908373ffffffffffffffffffffffffffffffffffffffff16021790555080600160006101000a81548173ffffffffffffffffffffffffffffffffffffffff021916908373ffffffffffffffffffffffffffffffffffffffff16021790555060016002819055505062000163565b600080fd5b600073ffffffffffffffffffffffffffffffffffffffff82169050919050565b6000620000f982620000cc565b9050919050565b6200010b81620000ec565b81146200011757600080fd5b50565b6000815190506200012b8162000100565b92915050565b6000602082840312156200014a5762000149620000c7565b5b60006200015a848285016200011a565b91505092915050565b6127ab80620001736000396000f3fe6080604052600436106100915760003560e01c80636c932b1e116100595780636c932b1e1461017357806399bca79c146101b0578063b4aadd7d146101d9578063bc197c811461021b578063f23a6e611461025857610091565b806301ffc9a71461009657806337b99bc7146100d3578063564f7445146100ef57806357c90de51461010b57806368049cf914610134575b600080fd5b3480156100a257600080fd5b506100bd60048036038101906100b89190611642565b610295565b6040516100ca919061168a565b60405180910390f35b6100ed60048036038101906100e89190611739565b61030f565b005b6101096004803603810190610104919061178c565b610a39565b005b34801561011757600080fd5b50610132600480360381019061012d91906117cc565b610ea2565b005b34801561014057600080fd5b5061015b6004803603810190610156919061180c565b611203565b60405161016a93929190611857565b60405180910390f35b34801561017f57600080fd5b5061019a6004803603810190610195919061188e565b61124d565b6040516101a7919061168a565b60405180910390f35b3480156101bc57600080fd5b506101d760048036038101906101d291906118f3565b6112f6565b005b3480156101e557600080fd5b5061020060048036038101906101fb919061180c565b6114d9565b60405161021296959493929190611a0c565b60405180910390f35b34801561022757600080fd5b50610242600480360381019061023d9190611c7b565b611542565b60405161024f9190611d59565b60405180910390f35b34801561026457600080fd5b5061027f600480360381019061027a9190611d74565b611557565b60405161028c9190611d59565b60405180910390f35b60007f4e2312e0000000000000000000000000000000000000000000000000000000007bffffffffffffffffffffffffffffffffffffffffffffffffffffffff1916827bffffffffffffffffffffffffffffffffffffffffffffffffffffffff1916148061030857506103078261156c565b5b9050919050565b6000600360008481526020019081526020016000206001015490506000600360008581526020019081526020016000206040518060c00160405290816000820160009054906101000a900473ffffffffffffffffffffffffffffffffffffffff1673ffffffffffffffffffffffffffffffffffffffff1673ffffffffffffffffffffffffffffffffffffffff1681526020016001820154815260200160028201548152602001600382015481526020016004820160009054906101000a900460ff1660018111156103e3576103e2611995565b5b60018111156103f5576103f4611995565b5b81526020016005820154815250509050806000015173ffffffffffffffffffffffffffffffffffffffff163373ffffffffffffffffffffffffffffffffffffffff161415610478576040517f08c379a000000000000000000000000000000000000000000000000000000000815260040161046f90611e68565b60405180910390fd5b60018081111561048b5761048a611995565b5b6003600086815260200190815260200160002060040160009054906101000a900460ff1660018111156104c1576104c0611995565b5b14610501576040517f08c379a00000000000000000000000000000000000000000000000000000000081526004016104f890611ed4565b60405180910390fd5b6001151561050f868661124d565b1515141561081c57828573ffffffffffffffffffffffffffffffffffffffff1663d9e8deef6040518163ffffffff1660e01b815260040160206040518083038186803b15801561055e57600080fd5b505afa158015610572573d6000803e3d6000fd5b505050506040513d601f19601f820116820180604052508101906105969190611f32565b73ffffffffffffffffffffffffffffffffffffffff166370a08231336040518263ffffffff1660e01b81526004016105ce9190611f5f565b60206040518083038186803b1580156105e657600080fd5b505afa1580156105fa573d6000803e3d6000fd5b505050506040513d601f19601f8201168201806040525081019061061e9190611f8f565b101561065f576040517f08c379a000000000000000000000000000000000000000000000000000000000815260040161065690612008565b60405180910390fd5b8473ffffffffffffffffffffffffffffffffffffffff1663f242432a30338460200151876040518563ffffffff1660e01b81526004016106a2949392919061205f565b600060405180830381600087803b1580156106bc57600080fd5b505af11580156106d0573d6000803e3d6000fd5b505050508473ffffffffffffffffffffffffffffffffffffffff1663d9e8deef6040518163ffffffff1660e01b815260040160206040518083038186803b15801561071a57600080fd5b505afa15801561072e573d6000803e3d6000fd5b505050506040513d601f19601f820116820180604052508101906107529190611f32565b73ffffffffffffffffffffffffffffffffffffffff166323b872dd336003600088815260200190815260200160002060000160009054906101000a900473ffffffffffffffffffffffffffffffffffffffff16866040518463ffffffff1660e01b81526004016107c4939291906120b7565b602060405180830381600087803b1580156107de57600080fd5b505af11580156107f2573d6000803e3d6000fd5b505050506040513d601f19601f82011682018060405250810190610816919061211a565b5061096e565b60036000858152602001908152602001600020600301548361083e9190612176565b341461087f576040517f08c379a00000000000000000000000000000000000000000000000000000000081526004016108769061221c565b60405180910390fd5b8473ffffffffffffffffffffffffffffffffffffffff1663f242432a303385876040518563ffffffff1660e01b81526004016108be949392919061205f565b600060405180830381600087803b1580156108d857600080fd5b505af11580156108ec573d6000803e3d6000fd5b505050506003600085815260200190815260200160002060000160009054906101000a900473ffffffffffffffffffffffffffffffffffffffff1673ffffffffffffffffffffffffffffffffffffffff166108fc349081150290604051600060405180830381858888f1935050505015801561096c573d6000803e3d6000fd5b505b60006003600086815260200190815260200160002060000160009054906101000a900473ffffffffffffffffffffffffffffffffffffffff169050600060036000878152602001908152602001600020600101549050846003600088815260200190815260200160002060020160008282546109ea919061223c565b925050819055507f15dd716768aa1ede43c28e626479677a0ca5581a3f92a88777bfb7ab9b5f95db8686423330604051610a28959493929190612270565b60405180910390a150505050505050565b60006003600084815260200190815260200160002060000160009054906101000a900473ffffffffffffffffffffffffffffffffffffffff1690503373ffffffffffffffffffffffffffffffffffffffff166004600085815260200190815260200160002060000160009054906101000a900473ffffffffffffffffffffffffffffffffffffffff1673ffffffffffffffffffffffffffffffffffffffff1614610b18576040517f08c379a0000000000000000000000000000000000000000000000000000000008152600401610b0f9061230f565b60405180910390fd5b4260036000858152602001908152602001600020600501541115610b71576040517f08c379a0000000000000000000000000000000000000000000000000000000008152600401610b689061237b565b60405180910390fd5b6000600360008581526020019081526020016000206001015490508273ffffffffffffffffffffffffffffffffffffffff1663f242432a303384600360008a8152602001908152602001600020600201546040518563ffffffff1660e01b8152600401610be1949392919061205f565b600060405180830381600087803b158015610bfb57600080fd5b505af1158015610c0f573d6000803e3d6000fd5b505050506000600360008681526020019081526020016000206002018190555060011515610c3d848661124d565b15151415610da3578273ffffffffffffffffffffffffffffffffffffffff1663d9e8deef6040518163ffffffff1660e01b815260040160206040518083038186803b158015610c8b57600080fd5b505afa158015610c9f573d6000803e3d6000fd5b505050506040513d601f19601f82011682018060405250810190610cc39190611f32565b73ffffffffffffffffffffffffffffffffffffffff166323b872dd336003600088815260200190815260200160002060000160009054906101000a900473ffffffffffffffffffffffffffffffffffffffff1660036000898152602001908152602001600020600201546040518463ffffffff1660e01b8152600401610d4b939291906120b7565b602060405180830381600087803b158015610d6557600080fd5b505af1158015610d79573d6000803e3d6000fd5b505050506040513d601f19601f82011682018060405250810190610d9d919061211a565b50610e45565b600460006002548152602001908152602001600020600101543414610dfd576040517f08c379a0000000000000000000000000000000000000000000000000000000008152600401610df4906123e7565b60405180910390fd5b8173ffffffffffffffffffffffffffffffffffffffff166108fc349081150290604051600060405180830381858888f19350505050158015610e43573d6000803e3d6000fd5b505b7f15dd716768aa1ede43c28e626479677a0ca5581a3f92a88777bfb7ab9b5f95db6002546003600087815260200190815260200160002060020154423330604051610e94959493929190612270565b60405180910390a150505050565b6000600360008481526020019081526020016000206040518060c00160405290816000820160009054906101000a900473ffffffffffffffffffffffffffffffffffffffff1673ffffffffffffffffffffffffffffffffffffffff1673ffffffffffffffffffffffffffffffffffffffff1681526020016001820154815260200160028201548152602001600382015481526020016004820160009054906101000a900460ff166001811115610f5b57610f5a611995565b5b6001811115610f6d57610f6c611995565b5b81526020016005820154815250509050806000015173ffffffffffffffffffffffffffffffffffffffff163373ffffffffffffffffffffffffffffffffffffffff161415610ff0576040517f08c379a0000000000000000000000000000000000000000000000000000000008152600401610fe790612453565b60405180910390fd5b6000600181111561100457611003611995565b5b6003600085815260200190815260200160002060040160009054906101000a900460ff16600181111561103a57611039611995565b5b1461107a576040517f08c379a0000000000000000000000000000000000000000000000000000000008152600401611071906124bf565b60405180910390fd5b80606001518210156110c1576040517f08c379a00000000000000000000000000000000000000000000000000000000081526004016110b890612551565b60405180910390fd5b60046000848152602001908152602001600020600101548211611119576040517f08c379a0000000000000000000000000000000000000000000000000000000008152600401611110906125bd565b60405180910390fd5b600060405180606001604052803373ffffffffffffffffffffffffffffffffffffffff168152602001848152602001428152509050806004600086815260200190815260200160002060008201518160000160006101000a81548173ffffffffffffffffffffffffffffffffffffffff021916908373ffffffffffffffffffffffffffffffffffffffff16021790555060208201518160010155604082015181600201559050507fa0ea817a973f3213d19f2b1caf08f715b6ab75ffb719e216cc874568a1edfe90848433426040516111f594939291906125dd565b60405180910390a150505050565b60046020528060005260406000206000915090508060000160009054906101000a900473ffffffffffffffffffffffffffffffffffffffff16908060010154908060020154905083565b60008273ffffffffffffffffffffffffffffffffffffffff1663455f658160036000858152602001908152602001600020600101546040518263ffffffff1660e01b815260040161129e9190612622565b60206040518083038186803b1580156112b657600080fd5b505afa1580156112ca573d6000803e3d6000fd5b505050506040513d601f19601f820116820180604052508101906112ee919061211a565b905092915050565b60006040518060c001604052808773ffffffffffffffffffffffffffffffffffffffff16815260200188815260200186815260200185815260200184600181111561134457611343611995565b5b81526020018381525090508060036000600254815260200190815260200160002060008201518160000160006101000a81548173ffffffffffffffffffffffffffffffffffffffff021916908373ffffffffffffffffffffffffffffffffffffffff16021790555060208201518160010155604082015181600201556060820151816003015560808201518160040160006101000a81548160ff021916908360018111156113f5576113f4611995565b5b021790555060a082015181600501559050508773ffffffffffffffffffffffffffffffffffffffff1663f242432a87308a896040518563ffffffff1660e01b8152600401611446949392919061205f565b600060405180830381600087803b15801561146057600080fd5b505af1158015611474573d6000803e3d6000fd5b505050507f6c36b618dd3ddbb04a4386bda8d04ade2f18e92db31389c805817fe7c146421f8160025442896040516114af94939291906126e5565b60405180910390a1600260008154809291906114ca9061272c565b91905055505050505050505050565b60036020528060005260406000206000915090508060000160009054906101000a900473ffffffffffffffffffffffffffffffffffffffff16908060010154908060020154908060030154908060040160009054906101000a900460ff16908060050154905086565b600063bc197c8160e01b905095945050505050565b600063f23a6e6160e01b905095945050505050565b60007f01ffc9a7000000000000000000000000000000000000000000000000000000007bffffffffffffffffffffffffffffffffffffffffffffffffffffffff1916827bffffffffffffffffffffffffffffffffffffffffffffffffffffffff1916149050919050565b6000604051905090565b600080fd5b600080fd5b60007fffffffff0000000000000000000000000000000000000000000000000000000082169050919050565b61161f816115ea565b811461162a57600080fd5b50565b60008135905061163c81611616565b92915050565b600060208284031215611658576116576115e0565b5b60006116668482850161162d565b91505092915050565b60008115159050919050565b6116848161166f565b82525050565b600060208201905061169f600083018461167b565b92915050565b600073ffffffffffffffffffffffffffffffffffffffff82169050919050565b60006116d0826116a5565b9050919050565b6116e0816116c5565b81146116eb57600080fd5b50565b6000813590506116fd816116d7565b92915050565b6000819050919050565b61171681611703565b811461172157600080fd5b50565b6000813590506117338161170d565b92915050565b600080600060608486031215611752576117516115e0565b5b6000611760868287016116ee565b935050602061177186828701611724565b925050604061178286828701611724565b9150509250925092565b600080604083850312156117a3576117a26115e0565b5b60006117b185828601611724565b92505060206117c2858286016116ee565b9150509250929050565b600080604083850312156117e3576117e26115e0565b5b60006117f185828601611724565b925050602061180285828601611724565b9150509250929050565b600060208284031215611822576118216115e0565b5b600061183084828501611724565b91505092915050565b611842816116c5565b82525050565b61185181611703565b82525050565b600060608201905061186c6000830186611839565b6118796020830185611848565b6118866040830184611848565b949350505050565b600080604083850312156118a5576118a46115e0565b5b60006118b3858286016116ee565b92505060206118c485828601611724565b9150509250929050565b600281106118db57600080fd5b50565b6000813590506118ed816118ce565b92915050565b600080600080600080600060e0888a031215611912576119116115e0565b5b60006119208a828b016116ee565b97505060206119318a828b01611724565b96505060406119428a828b016116ee565b95505060606119538a828b01611724565b94505060806119648a828b01611724565b93505060a06119758a828b016118de565b92505060c06119868a828b01611724565b91505092959891949750929550565b7f4e487b7100000000000000000000000000000000000000000000000000000000600052602160045260246000fd5b600281106119d5576119d4611995565b5b50565b60008190506119e6826119c4565b919050565b60006119f6826119d8565b9050919050565b611a06816119eb565b82525050565b600060c082019050611a216000830189611839565b611a2e6020830188611848565b611a3b6040830187611848565b611a486060830186611848565b611a5560808301856119fd565b611a6260a0830184611848565b979650505050505050565b600080fd5b6000601f19601f8301169050919050565b7f4e487b7100000000000000000000000000000000000000000000000000000000600052604160045260246000fd5b611abb82611a72565b810181811067ffffffffffffffff82111715611ada57611ad9611a83565b5b80604052505050565b6000611aed6115d6565b9050611af98282611ab2565b919050565b600067ffffffffffffffff821115611b1957611b18611a83565b5b602082029050602081019050919050565b600080fd5b6000611b42611b3d84611afe565b611ae3565b90508083825260208201905060208402830185811115611b6557611b64611b2a565b5b835b81811015611b8e5780611b7a8882611724565b845260208401935050602081019050611b67565b5050509392505050565b600082601f830112611bad57611bac611a6d565b5b8135611bbd848260208601611b2f565b91505092915050565b600080fd5b600067ffffffffffffffff821115611be657611be5611a83565b5b611bef82611a72565b9050602081019050919050565b82818337600083830152505050565b6000611c1e611c1984611bcb565b611ae3565b905082815260208101848484011115611c3a57611c39611bc6565b5b611c45848285611bfc565b509392505050565b600082601f830112611c6257611c61611a6d565b5b8135611c72848260208601611c0b565b91505092915050565b600080600080600060a08688031215611c9757611c966115e0565b5b6000611ca5888289016116ee565b9550506020611cb6888289016116ee565b945050604086013567ffffffffffffffff811115611cd757611cd66115e5565b5b611ce388828901611b98565b935050606086013567ffffffffffffffff811115611d0457611d036115e5565b5b611d1088828901611b98565b925050608086013567ffffffffffffffff811115611d3157611d306115e5565b5b611d3d88828901611c4d565b9150509295509295909350565b611d53816115ea565b82525050565b6000602082019050611d6e6000830184611d4a565b92915050565b600080600080600060a08688031215611d9057611d8f6115e0565b5b6000611d9e888289016116ee565b9550506020611daf888289016116ee565b9450506040611dc088828901611724565b9350506060611dd188828901611724565b925050608086013567ffffffffffffffff811115611df257611df16115e5565b5b611dfe88828901611c4d565b9150509295509295909350565b600082825260208201905092915050565b7f42757965722063616e6e6f74206265207468652073656c6c6572000000000000600082015250565b6000611e52601a83611e0b565b9150611e5d82611e1c565b602082019050919050565b60006020820190508181036000830152611e8181611e45565b9050919050565b7f53616c6554797065206973206e6f7420494e5354414e542e0000000000000000600082015250565b6000611ebe601883611e0b565b9150611ec982611e88565b602082019050919050565b60006020820190508181036000830152611eed81611eb1565b9050919050565b6000611eff826116c5565b9050919050565b611f0f81611ef4565b8114611f1a57600080fd5b50565b600081519050611f2c81611f06565b92915050565b600060208284031215611f4857611f476115e0565b5b6000611f5684828501611f1d565b91505092915050565b6000602082019050611f746000830184611839565b92915050565b600081519050611f898161170d565b92915050565b600060208284031215611fa557611fa46115e0565b5b6000611fb384828501611f7a565b91505092915050565b7f796f75206861766520746f20706179206d6f7265000000000000000000000000600082015250565b6000611ff2601483611e0b565b9150611ffd82611fbc565b602082019050919050565b6000602082019050818103600083015261202181611fe5565b9050919050565b600082825260208201905092915050565b50565b6000612049600083612028565b915061205482612039565b600082019050919050565b600060a0820190506120746000830187611839565b6120816020830186611839565b61208e6040830185611848565b61209b6060830184611848565b81810360808301526120ac8161203c565b905095945050505050565b60006060820190506120cc6000830186611839565b6120d96020830185611839565b6120e66040830184611848565b949350505050565b6120f78161166f565b811461210257600080fd5b50565b600081519050612114816120ee565b92915050565b6000602082840312156121305761212f6115e0565b5b600061213e84828501612105565b91505092915050565b7f4e487b7100000000000000000000000000000000000000000000000000000000600052601160045260246000fd5b600061218182611703565b915061218c83611703565b9250817fffffffffffffffffffffffffffffffffffffffffffffffffffffffffffffffff04831182151516156121c5576121c4612147565b5b828202905092915050565b7f70617920707269636520666f7220627579000000000000000000000000000000600082015250565b6000612206601183611e0b565b9150612211826121d0565b602082019050919050565b60006020820190508181036000830152612235816121f9565b9050919050565b600061224782611703565b915061225283611703565b92508282101561226557612264612147565b5b828203905092915050565b600060a0820190506122856000830188611848565b6122926020830187611848565b61229f6040830186611848565b6122ac6060830185611839565b6122b96080830184611839565b9695505050505050565b7f796f7520617265206e6f74206269646465720000000000000000000000000000600082015250565b60006122f9601283611e0b565b9150612304826122c3565b602082019050919050565b60006020820190508181036000830152612328816122ec565b9050919050565b7f54696d65206c696e65206973206e6f74206f7665720000000000000000000000600082015250565b6000612365601583611e0b565b91506123708261232f565b602082019050919050565b6000602082019050818103600083015261239481612358565b9050919050565b7f456e74657220636f72726563742076616c75652e000000000000000000000000600082015250565b60006123d1601483611e0b565b91506123dc8261239b565b602082019050919050565b60006020820190508181036000830152612400816123c4565b9050919050565b7f73656c6c65722063616e6e6f7420706c61636520612062696400000000000000600082015250565b600061243d601983611e0b565b915061244882612407565b602082019050919050565b6000602082019050818103600083015261246c81612430565b9050919050565b7f53616c6554797065206973206e6f742041554354494f4e2e0000000000000000600082015250565b60006124a9601883611e0b565b91506124b482612473565b602082019050919050565b600060208201905081810360008301526124d88161249c565b9050919050565b7f6269642076616c7565206973206c6f776572207468616e20746865206d696e6960008201527f6d756d2062696420616d6f756e74000000000000000000000000000000000000602082015250565b600061253b602e83611e0b565b9150612546826124df565b604082019050919050565b6000602082019050818103600083015261256a8161252e565b9050919050565b7f456e74657220486967682062696420616d6f756e742e00000000000000000000600082015250565b60006125a7601683611e0b565b91506125b282612571565b602082019050919050565b600060208201905081810360008301526125d68161259a565b9050919050565b60006080820190506125f26000830187611848565b6125ff6020830186611848565b61260c6040830185611839565b6126196060830184611848565b95945050505050565b60006020820190506126376000830184611848565b92915050565b612646816116c5565b82525050565b61265581611703565b82525050565b612664816119eb565b82525050565b60c082016000820151612680600085018261263d565b506020820151612693602085018261264c565b5060408201516126a6604085018261264c565b5060608201516126b9606085018261264c565b5060808201516126cc608085018261265b565b5060a08201516126df60a085018261264c565b50505050565b6000610120820190506126fb600083018761266a565b61270860c0830186611848565b61271560e0830185611848565b612723610100830184611839565b95945050505050565b600061273782611703565b91507fffffffffffffffffffffffffffffffffffffffffffffffffffffffffffffffff82141561276a57612769612147565b5b60018201905091905056fea26469706673582212203f3d2b1eae1e2404dfabab8203d7cb0dd5757c64ca41c705448d4b01e5a24e9964736f6c63430008090033",
  "linkReferences": {},
  "deployedLinkReferences": {}
}